{
  "contractName": "ERC721Pausable",
  "abi": [
    {
      "constant": true,
      "inputs": [
        {
          "name": "interfaceId",
          "type": "bytes4"
        }
      ],
      "name": "supportsInterface",
      "outputs": [
        {
          "name": "",
          "type": "bool"
        }
      ],
      "payable": false,
      "stateMutability": "view",
      "type": "function"
    },
    {
      "constant": true,
      "inputs": [
        {
          "name": "tokenId",
          "type": "uint256"
        }
      ],
      "name": "getApproved",
      "outputs": [
        {
          "name": "",
          "type": "address"
        }
      ],
      "payable": false,
      "stateMutability": "view",
      "type": "function"
    },
    {
      "constant": false,
      "inputs": [
        {
          "name": "from",
          "type": "address"
        },
        {
          "name": "to",
          "type": "address"
        },
        {
          "name": "tokenId",
          "type": "uint256"
        }
      ],
      "name": "transferFrom",
      "outputs": [],
      "payable": false,
      "stateMutability": "nonpayable",
      "type": "function"
    },
    {
      "constant": false,
      "inputs": [],
      "name": "unpause",
      "outputs": [],
      "payable": false,
      "stateMutability": "nonpayable",
      "type": "function"
    },
    {
      "constant": false,
      "inputs": [
        {
          "name": "from",
          "type": "address"
        },
        {
          "name": "to",
          "type": "address"
        },
        {
          "name": "tokenId",
          "type": "uint256"
        }
      ],
      "name": "safeTransferFrom",
      "outputs": [],
      "payable": false,
      "stateMutability": "nonpayable",
      "type": "function"
    },
    {
      "constant": true,
      "inputs": [
        {
          "name": "account",
          "type": "address"
        }
      ],
      "name": "isPauser",
      "outputs": [
        {
          "name": "",
          "type": "bool"
        }
      ],
      "payable": false,
      "stateMutability": "view",
      "type": "function"
    },
    {
      "constant": true,
      "inputs": [],
      "name": "paused",
      "outputs": [
        {
          "name": "",
          "type": "bool"
        }
      ],
      "payable": false,
      "stateMutability": "view",
      "type": "function"
    },
    {
      "constant": true,
      "inputs": [
        {
          "name": "tokenId",
          "type": "uint256"
        }
      ],
      "name": "ownerOf",
      "outputs": [
        {
          "name": "",
          "type": "address"
        }
      ],
      "payable": false,
      "stateMutability": "view",
      "type": "function"
    },
    {
      "constant": false,
      "inputs": [],
      "name": "renouncePauser",
      "outputs": [],
      "payable": false,
      "stateMutability": "nonpayable",
      "type": "function"
    },
    {
      "constant": true,
      "inputs": [
        {
          "name": "owner",
          "type": "address"
        }
      ],
      "name": "balanceOf",
      "outputs": [
        {
          "name": "",
          "type": "uint256"
        }
      ],
      "payable": false,
      "stateMutability": "view",
      "type": "function"
    },
    {
      "constant": false,
      "inputs": [
        {
          "name": "account",
          "type": "address"
        }
      ],
      "name": "addPauser",
      "outputs": [],
      "payable": false,
      "stateMutability": "nonpayable",
      "type": "function"
    },
    {
      "constant": false,
      "inputs": [],
      "name": "pause",
      "outputs": [],
      "payable": false,
      "stateMutability": "nonpayable",
      "type": "function"
    },
    {
      "constant": false,
      "inputs": [
        {
          "name": "from",
          "type": "address"
        },
        {
          "name": "to",
          "type": "address"
        },
        {
          "name": "tokenId",
          "type": "uint256"
        },
        {
          "name": "_data",
          "type": "bytes"
        }
      ],
      "name": "safeTransferFrom",
      "outputs": [],
      "payable": false,
      "stateMutability": "nonpayable",
      "type": "function"
    },
    {
      "constant": true,
      "inputs": [
        {
          "name": "owner",
          "type": "address"
        },
        {
          "name": "operator",
          "type": "address"
        }
      ],
      "name": "isApprovedForAll",
      "outputs": [
        {
          "name": "",
          "type": "bool"
        }
      ],
      "payable": false,
      "stateMutability": "view",
      "type": "function"
    },
    {
      "anonymous": false,
      "inputs": [
        {
          "indexed": false,
          "name": "account",
          "type": "address"
        }
      ],
      "name": "Paused",
      "type": "event"
    },
    {
      "anonymous": false,
      "inputs": [
        {
          "indexed": false,
          "name": "account",
          "type": "address"
        }
      ],
      "name": "Unpaused",
      "type": "event"
    },
    {
      "anonymous": false,
      "inputs": [
        {
          "indexed": true,
          "name": "account",
          "type": "address"
        }
      ],
      "name": "PauserAdded",
      "type": "event"
    },
    {
      "anonymous": false,
      "inputs": [
        {
          "indexed": true,
          "name": "account",
          "type": "address"
        }
      ],
      "name": "PauserRemoved",
      "type": "event"
    },
    {
      "anonymous": false,
      "inputs": [
        {
          "indexed": true,
          "name": "from",
          "type": "address"
        },
        {
          "indexed": true,
          "name": "to",
          "type": "address"
        },
        {
          "indexed": true,
          "name": "tokenId",
          "type": "uint256"
        }
      ],
      "name": "Transfer",
      "type": "event"
    },
    {
      "anonymous": false,
      "inputs": [
        {
          "indexed": true,
          "name": "owner",
          "type": "address"
        },
        {
          "indexed": true,
          "name": "approved",
          "type": "address"
        },
        {
          "indexed": true,
          "name": "tokenId",
          "type": "uint256"
        }
      ],
      "name": "Approval",
      "type": "event"
    },
    {
      "anonymous": false,
      "inputs": [
        {
          "indexed": true,
          "name": "owner",
          "type": "address"
        },
        {
          "indexed": true,
          "name": "operator",
          "type": "address"
        },
        {
          "indexed": false,
          "name": "approved",
          "type": "bool"
        }
      ],
      "name": "ApprovalForAll",
      "type": "event"
    },
    {
      "constant": false,
      "inputs": [
        {
          "name": "to",
          "type": "address"
        },
        {
          "name": "tokenId",
          "type": "uint256"
        }
      ],
      "name": "approve",
      "outputs": [],
      "payable": false,
      "stateMutability": "nonpayable",
      "type": "function"
    },
    {
      "constant": false,
      "inputs": [
        {
          "name": "to",
          "type": "address"
        },
        {
          "name": "approved",
          "type": "bool"
        }
      ],
      "name": "setApprovalForAll",
      "outputs": [],
      "payable": false,
      "stateMutability": "nonpayable",
      "type": "function"
    }
  ],
  "bytecode": "0x6080604052620000387f01ffc9a7000000000000000000000000000000000000000000000000000000006001600160e01b03620000a216565b6200006c7f80ac58cd000000000000000000000000000000000000000000000000000000006001600160e01b03620000a216565b62000092620000836001600160e01b036200017116565b6001600160e01b036200017516565b6006805460ff19169055620002f1565b7fffffffff0000000000000000000000000000000000000000000000000000000080821614156200013457604080517f08c379a000000000000000000000000000000000000000000000000000000000815260206004820152601c60248201527f4552433136353a20696e76616c696420696e7465726661636520696400000000604482015290519081900360640190fd5b7fffffffff00000000000000000000000000000000000000000000000000000000166000908152602081905260409020805460ff19166001179055565b3390565b62000190816005620001c760201b62000f5a1790919060201c565b6040516001600160a01b038216907f6719d08c1888103bea251a4ed56406bd0c3e69723c8a1686e017e7bbe159b6f890600090a250565b620001dc82826001600160e01b036200026e16565b156200024957604080517f08c379a000000000000000000000000000000000000000000000000000000000815260206004820152601f60248201527f526f6c65733a206163636f756e7420616c72656164792068617320726f6c6500604482015290519081900360640190fd5b6001600160a01b0316600090815260209190915260409020805460ff19166001179055565b60006001600160a01b038216620002d1576040517f08c379a0000000000000000000000000000000000000000000000000000000008152600401808060200182810382526022815260200180620018e76022913960400191505060405180910390fd5b506001600160a01b03166000908152602091909152604090205460ff1690565b6115e680620003016000396000f3fe608060405234801561001057600080fd5b50600436106101005760003560e01c80636352211e116100975780638456cb59116100665780638456cb59146102cc578063a22cb465146102d4578063b88d4fde14610302578063e985e9c5146103c857610100565b80636352211e146102495780636ef8d66d1461026657806370a082311461026e57806382dc1ec4146102a657610100565b80633f4ba83a116100d35780633f4ba83a146101dd57806342842e0e146101e557806346fbf68e1461021b5780635c975abb1461024157610100565b806301ffc9a714610105578063081812fc14610140578063095ea7b31461017957806323b872dd146101a7575b600080fd5b61012c6004803603602081101561011b57600080fd5b50356001600160e01b0319166103f6565b604080519115158252519081900360200190f35b61015d6004803603602081101561015657600080fd5b5035610415565b604080516001600160a01b039092168252519081900360200190f35b6101a56004803603604081101561018f57600080fd5b506001600160a01b038135169060200135610477565b005b6101a5600480360360608110156101bd57600080fd5b506001600160a01b038135811691602081013590911690604001356104d0565b6101a561052c565b6101a5600480360360608110156101fb57600080fd5b506001600160a01b03813581169160208101359091169060400135610615565b61012c6004803603602081101561023157600080fd5b50356001600160a01b0316610630565b61012c610649565b61015d6004803603602081101561025f57600080fd5b5035610652565b6101a56106a6565b6102946004803603602081101561028457600080fd5b50356001600160a01b03166106b8565b60408051918252519081900360200190f35b6101a5600480360360208110156102bc57600080fd5b50356001600160a01b0316610720565b6101a5610772565b6101a5600480360360408110156102ea57600080fd5b506001600160a01b0381351690602001351515610839565b6101a56004803603608081101561031857600080fd5b6001600160a01b0382358116926020810135909116916040820135919081019060808101606082013564010000000081111561035357600080fd5b82018360208201111561036557600080fd5b8035906020019184600183028401116401000000008311171561038757600080fd5b91908080601f01602080910402602001604051908101604052809392919081815260200183838082843760009201919091525092955061088e945050505050565b61012c600480360360408110156103de57600080fd5b506001600160a01b03813581169160200135166108ec565b6001600160e01b03191660009081526020819052604090205460ff1690565b60006104208261091a565b61045b5760405162461bcd60e51b815260040180806020018281038252602c8152602001806114e9602c913960400191505060405180910390fd5b506000908152600260205260409020546001600160a01b031690565b60065460ff16156104c2576040805162461bcd60e51b815260206004820152601060248201526f14185d5cd8589b194e881c185d5cd95960821b604482015290519081900360640190fd5b6104cc8282610937565b5050565b6104e16104db610a5f565b82610a63565b61051c5760405162461bcd60e51b81526004018080602001828103825260318152602001806115816031913960400191505060405180910390fd5b610527838383610b07565b505050565b61053c610537610a5f565b610630565b6105775760405162461bcd60e51b81526004018080602001828103825260308152602001806113bd6030913960400191505060405180910390fd5b60065460ff166105c5576040805162461bcd60e51b815260206004820152601460248201527314185d5cd8589b194e881b9bdd081c185d5cd95960621b604482015290519081900360640190fd5b6006805460ff191690557f5db9ee0a495bf2e6ff9c91a7834c1ba4fdd244a5e8aa4e537bd38aeae4b073aa6105f8610a5f565b604080516001600160a01b039092168252519081900360200190a1565b6105278383836040518060200160405280600081525061088e565b600061064360058363ffffffff610b5d16565b92915050565b60065460ff1690565b6000818152600160205260408120546001600160a01b0316806106435760405162461bcd60e51b815260040180806020018281038252602981526020018061149f6029913960400191505060405180910390fd5b6106b66106b1610a5f565b610bc4565b565b60006001600160a01b0382166106ff5760405162461bcd60e51b815260040180806020018281038252602a815260200180611475602a913960400191505060405180910390fd5b6001600160a01b038216600090815260036020526040902061064390610c0c565b61072b610537610a5f565b6107665760405162461bcd60e51b81526004018080602001828103825260308152602001806113bd6030913960400191505060405180910390fd5b61076f81610c10565b50565b61077d610537610a5f565b6107b85760405162461bcd60e51b81526004018080602001828103825260308152602001806113bd6030913960400191505060405180910390fd5b60065460ff1615610803576040805162461bcd60e51b815260206004820152601060248201526f14185d5cd8589b194e881c185d5cd95960821b604482015290519081900360640190fd5b6006805460ff191660011790557f62e78cea01bee320cd4e420270b5ea74000d11b0c9f74754ebdbfc544b05a2586105f8610a5f565b60065460ff1615610884576040805162461bcd60e51b815260206004820152601060248201526f14185d5cd8589b194e881c185d5cd95960821b604482015290519081900360640190fd5b6104cc8282610c58565b61089f610899610a5f565b83610a63565b6108da5760405162461bcd60e51b81526004018080602001828103825260318152602001806115816031913960400191505060405180910390fd5b6108e684848484610d5d565b50505050565b6001600160a01b03918216600090815260046020908152604080832093909416825291909152205460ff1690565b6000908152600160205260409020546001600160a01b0316151590565b600061094282610652565b9050806001600160a01b0316836001600160a01b031614156109955760405162461bcd60e51b81526004018080602001828103825260218152602001806115606021913960400191505060405180910390fd5b806001600160a01b03166109a7610a5f565b6001600160a01b031614806109c857506109c8816109c3610a5f565b6108ec565b610a035760405162461bcd60e51b815260040180806020018281038252603881526020018061143d6038913960400191505060405180910390fd5b60008281526002602052604080822080546001600160a01b0319166001600160a01b0387811691821790925591518593918516917f8c5be1e5ebec7d5bd14f71427d1e84f3dd0314c0f7b2291e5b200ac8c7c3b92591a4505050565b3390565b6000610a6e8261091a565b610aa95760405162461bcd60e51b815260040180806020018281038252602c815260200180611411602c913960400191505060405180910390fd5b6000610ab483610652565b9050806001600160a01b0316846001600160a01b03161480610aef5750836001600160a01b0316610ae484610415565b6001600160a01b0316145b80610aff5750610aff81856108ec565b949350505050565b60065460ff1615610b52576040805162461bcd60e51b815260206004820152601060248201526f14185d5cd8589b194e881c185d5cd95960821b604482015290519081900360640190fd5b610527838383610daf565b60006001600160a01b038216610ba45760405162461bcd60e51b81526004018080602001828103825260228152602001806115156022913960400191505060405180910390fd5b506001600160a01b03166000908152602091909152604090205460ff1690565b610bd560058263ffffffff610ef316565b6040516001600160a01b038216907fcd265ebaf09df2871cc7bd4133404a235ba12eff2041bb89d9c714a2621c7c7e90600090a250565b5490565b610c2160058263ffffffff610f5a16565b6040516001600160a01b038216907f6719d08c1888103bea251a4ed56406bd0c3e69723c8a1686e017e7bbe159b6f890600090a250565b610c60610a5f565b6001600160a01b0316826001600160a01b03161415610cc6576040805162461bcd60e51b815260206004820152601960248201527f4552433732313a20617070726f766520746f2063616c6c657200000000000000604482015290519081900360640190fd5b8060046000610cd3610a5f565b6001600160a01b03908116825260208083019390935260409182016000908120918716808252919093529120805460ff191692151592909217909155610d17610a5f565b60408051841515815290516001600160a01b0392909216917f17307eab39ab6107e8899845ad3d59bd9653f200f220920489ca2b5937696c319181900360200190a35050565b610d68848484610b07565b610d7484848484610fdb565b6108e65760405162461bcd60e51b815260040180806020018281038252603281526020018061138b6032913960400191505060405180910390fd5b826001600160a01b0316610dc282610652565b6001600160a01b031614610e075760405162461bcd60e51b81526004018080602001828103825260298152602001806115376029913960400191505060405180910390fd5b6001600160a01b038216610e4c5760405162461bcd60e51b81526004018080602001828103825260248152602001806113ed6024913960400191505060405180910390fd5b610e5581611216565b6001600160a01b0383166000908152600360205260409020610e7690611251565b6001600160a01b0382166000908152600360205260409020610e9790611268565b60008181526001602052604080822080546001600160a01b0319166001600160a01b0386811691821790925591518493918716917fddf252ad1be2c89b69c2b068fc378daa952ba7f163c4a11628f55a4df523b3ef91a4505050565b610efd8282610b5d565b610f385760405162461bcd60e51b81526004018080602001828103825260218152602001806114c86021913960400191505060405180910390fd5b6001600160a01b0316600090815260209190915260409020805460ff19169055565b610f648282610b5d565b15610fb6576040805162461bcd60e51b815260206004820152601f60248201527f526f6c65733a206163636f756e7420616c72656164792068617320726f6c6500604482015290519081900360640190fd5b6001600160a01b0316600090815260209190915260409020805460ff19166001179055565b6000610fef846001600160a01b0316611271565b610ffb57506001610aff565b600060606001600160a01b038616630a85bd0160e11b611019610a5f565b89888860405160240180856001600160a01b03166001600160a01b03168152602001846001600160a01b03166001600160a01b0316815260200183815260200180602001828103825283818151815260200191508051906020019080838360005b8381101561109257818101518382015260200161107a565b50505050905090810190601f1680156110bf5780820380516001836020036101000a031916815260200191505b5060408051601f198184030181529181526020820180516001600160e01b03166001600160e01b0319909a16999099178952518151919890975087965094509250829150849050835b602083106111275780518252601f199092019160209182019101611108565b6001836020036101000a0380198251168184511680821785525050505050509050019150506000604051808303816000865af19150503d8060008114611189576040519150601f19603f3d011682016040523d82523d6000602084013e61118e565b606091505b5091509150816111df578051156111a85780518082602001fd5b60405162461bcd60e51b815260040180806020018281038252603281526020018061138b6032913960400191505060405180910390fd5b60008180602001905160208110156111f657600080fd5b50516001600160e01b031916630a85bd0160e11b149350610aff92505050565b6000818152600260205260409020546001600160a01b03161561076f57600090815260026020526040902080546001600160a01b0319169055565b805461126490600163ffffffff6112aa16565b9055565b80546001019055565b6000813f7fc5d2460186f7233c927e7db2dcc703c0e500b653ca82273b7bfad8045d85a470818114801590610aff575050151592915050565b60006112ec83836040518060400160405280601e81526020017f536166654d6174683a207375627472616374696f6e206f766572666c6f7700008152506112f3565b9392505050565b600081848411156113825760405162461bcd60e51b81526004018080602001828103825283818151815260200191508051906020019080838360005b8381101561134757818101518382015260200161132f565b50505050905090810190601f1680156113745780820380516001836020036101000a031916815260200191505b509250505060405180910390fd5b50505090039056fe4552433732313a207472616e7366657220746f206e6f6e20455243373231526563656976657220696d706c656d656e746572506175736572526f6c653a2063616c6c657220646f6573206e6f742068617665207468652050617573657220726f6c654552433732313a207472616e7366657220746f20746865207a65726f20616464726573734552433732313a206f70657261746f7220717565727920666f72206e6f6e6578697374656e7420746f6b656e4552433732313a20617070726f76652063616c6c6572206973206e6f74206f776e6572206e6f7220617070726f76656420666f7220616c6c4552433732313a2062616c616e636520717565727920666f7220746865207a65726f20616464726573734552433732313a206f776e657220717565727920666f72206e6f6e6578697374656e7420746f6b656e526f6c65733a206163636f756e7420646f6573206e6f74206861766520726f6c654552433732313a20617070726f76656420717565727920666f72206e6f6e6578697374656e7420746f6b656e526f6c65733a206163636f756e7420697320746865207a65726f20616464726573734552433732313a207472616e73666572206f6620746f6b656e2074686174206973206e6f74206f776e4552433732313a20617070726f76616c20746f2063757272656e74206f776e65724552433732313a207472616e736665722063616c6c6572206973206e6f74206f776e6572206e6f7220617070726f766564a265627a7a723058205ef486da9dc182a77ac4b6ed0f6eae21928f7234ba863e2a12f8c4072f87671f64736f6c634300050a0032526f6c65733a206163636f756e7420697320746865207a65726f2061646472657373",
  "source": "pragma solidity ^0.5.0;\n\nimport \"./ERC721.sol\";\nimport \"../../lifecycle/Pausable.sol\";\n\n/**\n * @title ERC721 Non-Fungible Pausable token\n * @dev ERC721 modified with pausable transfers.\n */\ncontract ERC721Pausable is ERC721, Pausable {\n    function approve(address to, uint256 tokenId) public whenNotPaused {\n        super.approve(to, tokenId);\n    }\n\n    function setApprovalForAll(address to, bool approved) public whenNotPaused {\n        super.setApprovalForAll(to, approved);\n    }\n\n    function _transferFrom(address from, address to, uint256 tokenId) internal whenNotPaused {\n        super._transferFrom(from, to, tokenId);\n    }\n}\n",
  "sourcePath": "C:\\Users\\MUS1\\WebstormProjects\\nft_klaytn_to_eth\\contracts\\token\\ERC721\\ERC721Pausable.sol",
  "compiler": {
    "name": "solc",
    "version": "0.5.10+commit.5a6ea5b1.Emscripten.clang"
  },
  "schemaVersion": "3.4.7",
  "updatedAt": "2022-06-13T07:58:35.759Z",
  "devdoc": {
    "details": "ERC721 modified with pausable transfers.",
    "methods": {
      "balanceOf(address)": {
        "details": "Gets the balance of the specified address.",
        "params": {
          "owner": "address to query the balance of"
        },
        "return": "uint256 representing the amount owned by the passed address"
      },
      "getApproved(uint256)": {
        "details": "Gets the approved address for a token ID, or zero if no address set Reverts if the token ID does not exist.",
        "params": {
          "tokenId": "uint256 ID of the token to query the approval of"
        },
        "return": "address currently approved for the given token ID"
      },
      "isApprovedForAll(address,address)": {
        "details": "Tells whether an operator is approved by a given owner.",
        "params": {
          "operator": "operator address which you want to query the approval of",
          "owner": "owner address which you want to query the approval of"
        },
        "return": "bool whether the given operator is approved by the given owner"
      },
      "ownerOf(uint256)": {
        "details": "Gets the owner of the specified token ID.",
        "params": {
          "tokenId": "uint256 ID of the token to query the owner of"
        },
        "return": "address currently marked as the owner of the given token ID"
      },
      "pause()": {
        "details": "Called by a pauser to pause, triggers stopped state."
      },
      "paused()": {
        "details": "Returns true if the contract is paused, and false otherwise."
      },
      "safeTransferFrom(address,address,uint256)": {
        "details": "Safely transfers the ownership of a given token ID to another address If the target address is a contract, it must implement {IERC721Receiver-onERC721Received}, which is called upon a safe transfer, and return the magic value `bytes4(keccak256(\"onERC721Received(address,address,uint256,bytes)\"))`; otherwise, the transfer is reverted. Requires the msg.sender to be the owner, approved, or operator",
        "params": {
          "from": "current owner of the token",
          "to": "address to receive the ownership of the given token ID",
          "tokenId": "uint256 ID of the token to be transferred"
        }
      },
      "safeTransferFrom(address,address,uint256,bytes)": {
        "details": "Safely transfers the ownership of a given token ID to another address If the target address is a contract, it must implement {IERC721Receiver-onERC721Received}, which is called upon a safe transfer, and return the magic value `bytes4(keccak256(\"onERC721Received(address,address,uint256,bytes)\"))`; otherwise, the transfer is reverted. Requires the _msgSender() to be the owner, approved, or operator",
        "params": {
          "_data": "bytes data to send along with a safe transfer check",
          "from": "current owner of the token",
          "to": "address to receive the ownership of the given token ID",
          "tokenId": "uint256 ID of the token to be transferred"
        }
      },
      "supportsInterface(bytes4)": {
        "details": "See {IERC165-supportsInterface}.     * Time complexity O(1), guaranteed to always use less than 30 000 gas."
      },
      "transferFrom(address,address,uint256)": {
        "details": "Transfers the ownership of a given token ID to another address. Usage of this method is discouraged, use {safeTransferFrom} whenever possible. Requires the msg.sender to be the owner, approved, or operator.",
        "params": {
          "from": "current owner of the token",
          "to": "address to receive the ownership of the given token ID",
          "tokenId": "uint256 ID of the token to be transferred"
        }
      },
      "unpause()": {
        "details": "Called by a pauser to unpause, returns to normal state."
      }
    },
    "title": "ERC721 Non-Fungible Pausable token"
  },
  "userdoc": {
    "methods": {}
  }
}