{
  "contractName": "ERC721Full",
  "abi": [
    {
      "constant": true,
      "inputs": [
        {
          "name": "interfaceId",
          "type": "bytes4"
        }
      ],
      "name": "supportsInterface",
      "outputs": [
        {
          "name": "",
          "type": "bool"
        }
      ],
      "payable": false,
      "stateMutability": "view",
      "type": "function"
    },
    {
      "constant": true,
      "inputs": [],
      "name": "name",
      "outputs": [
        {
          "name": "",
          "type": "string"
        }
      ],
      "payable": false,
      "stateMutability": "view",
      "type": "function"
    },
    {
      "constant": true,
      "inputs": [
        {
          "name": "tokenId",
          "type": "uint256"
        }
      ],
      "name": "getApproved",
      "outputs": [
        {
          "name": "",
          "type": "address"
        }
      ],
      "payable": false,
      "stateMutability": "view",
      "type": "function"
    },
    {
      "constant": false,
      "inputs": [
        {
          "name": "to",
          "type": "address"
        },
        {
          "name": "tokenId",
          "type": "uint256"
        }
      ],
      "name": "approve",
      "outputs": [],
      "payable": false,
      "stateMutability": "nonpayable",
      "type": "function"
    },
    {
      "constant": true,
      "inputs": [],
      "name": "publicMintEnabled",
      "outputs": [
        {
          "name": "",
          "type": "bool"
        }
      ],
      "payable": false,
      "stateMutability": "view",
      "type": "function"
    },
    {
      "constant": true,
      "inputs": [],
      "name": "totalSupply",
      "outputs": [
        {
          "name": "",
          "type": "uint256"
        }
      ],
      "payable": false,
      "stateMutability": "view",
      "type": "function"
    },
    {
      "constant": true,
      "inputs": [],
      "name": "mintingInformation",
      "outputs": [
        {
          "name": "",
          "type": "uint256[7]"
        }
      ],
      "payable": false,
      "stateMutability": "view",
      "type": "function"
    },
    {
      "constant": false,
      "inputs": [
        {
          "name": "from",
          "type": "address"
        },
        {
          "name": "to",
          "type": "address"
        },
        {
          "name": "tokenId",
          "type": "uint256"
        }
      ],
      "name": "transferFrom",
      "outputs": [],
      "payable": false,
      "stateMutability": "nonpayable",
      "type": "function"
    },
    {
      "constant": false,
      "inputs": [
        {
          "name": "requestedCount",
          "type": "uint256"
        }
      ],
      "name": "publicMint",
      "outputs": [],
      "payable": true,
      "stateMutability": "payable",
      "type": "function"
    },
    {
      "constant": true,
      "inputs": [],
      "name": "merkleRoot",
      "outputs": [
        {
          "name": "",
          "type": "bytes32"
        }
      ],
      "payable": false,
      "stateMutability": "view",
      "type": "function"
    },
    {
      "constant": true,
      "inputs": [
        {
          "name": "owner",
          "type": "address"
        },
        {
          "name": "index",
          "type": "uint256"
        }
      ],
      "name": "tokenOfOwnerByIndex",
      "outputs": [
        {
          "name": "",
          "type": "uint256"
        }
      ],
      "payable": false,
      "stateMutability": "view",
      "type": "function"
    },
    {
      "constant": false,
      "inputs": [],
      "name": "withdraw",
      "outputs": [],
      "payable": false,
      "stateMutability": "nonpayable",
      "type": "function"
    },
    {
      "constant": false,
      "inputs": [
        {
          "name": "from",
          "type": "address"
        },
        {
          "name": "to",
          "type": "address"
        },
        {
          "name": "tokenId",
          "type": "uint256"
        }
      ],
      "name": "safeTransferFrom",
      "outputs": [],
      "payable": false,
      "stateMutability": "nonpayable",
      "type": "function"
    },
    {
      "constant": true,
      "inputs": [
        {
          "name": "index",
          "type": "uint256"
        }
      ],
      "name": "tokenByIndex",
      "outputs": [
        {
          "name": "",
          "type": "uint256"
        }
      ],
      "payable": false,
      "stateMutability": "view",
      "type": "function"
    },
    {
      "constant": true,
      "inputs": [],
      "name": "revealed",
      "outputs": [
        {
          "name": "",
          "type": "bool"
        }
      ],
      "payable": false,
      "stateMutability": "view",
      "type": "function"
    },
    {
      "constant": false,
      "inputs": [
        {
          "name": "_newBaseURI",
          "type": "string"
        }
      ],
      "name": "setBaseURI",
      "outputs": [],
      "payable": false,
      "stateMutability": "nonpayable",
      "type": "function"
    },
    {
      "constant": true,
      "inputs": [
        {
          "name": "tokenId",
          "type": "uint256"
        }
      ],
      "name": "ownerOf",
      "outputs": [
        {
          "name": "",
          "type": "address"
        }
      ],
      "payable": false,
      "stateMutability": "view",
      "type": "function"
    },
    {
      "constant": true,
      "inputs": [],
      "name": "baseURI",
      "outputs": [
        {
          "name": "",
          "type": "string"
        }
      ],
      "payable": false,
      "stateMutability": "view",
      "type": "function"
    },
    {
      "constant": true,
      "inputs": [],
      "name": "whitelistMintEnabled",
      "outputs": [
        {
          "name": "",
          "type": "bool"
        }
      ],
      "payable": false,
      "stateMutability": "view",
      "type": "function"
    },
    {
      "constant": true,
      "inputs": [
        {
          "name": "owner",
          "type": "address"
        }
      ],
      "name": "balanceOf",
      "outputs": [
        {
          "name": "",
          "type": "uint256"
        }
      ],
      "payable": false,
      "stateMutability": "view",
      "type": "function"
    },
    {
      "constant": false,
      "inputs": [
        {
          "name": "user",
          "type": "address"
        },
        {
          "name": "requestedCount",
          "type": "uint256"
        }
      ],
      "name": "airDropMint",
      "outputs": [],
      "payable": false,
      "stateMutability": "nonpayable",
      "type": "function"
    },
    {
      "constant": false,
      "inputs": [
        {
          "name": "_merkleRoot",
          "type": "bytes32"
        }
      ],
      "name": "setMerkleRoot",
      "outputs": [],
      "payable": false,
      "stateMutability": "nonpayable",
      "type": "function"
    },
    {
      "constant": false,
      "inputs": [
        {
          "name": "_state",
          "type": "bool"
        }
      ],
      "name": "setPublicMintEnabled",
      "outputs": [],
      "payable": false,
      "stateMutability": "nonpayable",
      "type": "function"
    },
    {
      "constant": false,
      "inputs": [
        {
          "name": "_state",
          "type": "bool"
        }
      ],
      "name": "reveal",
      "outputs": [],
      "payable": false,
      "stateMutability": "nonpayable",
      "type": "function"
    },
    {
      "constant": true,
      "inputs": [],
      "name": "symbol",
      "outputs": [
        {
          "name": "",
          "type": "string"
        }
      ],
      "payable": false,
      "stateMutability": "view",
      "type": "function"
    },
    {
      "constant": false,
      "inputs": [
        {
          "name": "account",
          "type": "address"
        }
      ],
      "name": "addMinter",
      "outputs": [],
      "payable": false,
      "stateMutability": "nonpayable",
      "type": "function"
    },
    {
      "constant": false,
      "inputs": [],
      "name": "renounceMinter",
      "outputs": [],
      "payable": false,
      "stateMutability": "nonpayable",
      "type": "function"
    },
    {
      "constant": false,
      "inputs": [
        {
          "name": "to",
          "type": "address"
        },
        {
          "name": "approved",
          "type": "bool"
        }
      ],
      "name": "setApprovalForAll",
      "outputs": [],
      "payable": false,
      "stateMutability": "nonpayable",
      "type": "function"
    },
    {
      "constant": false,
      "inputs": [
        {
          "name": "newAntibotInterval",
          "type": "uint256"
        },
        {
          "name": "newMintLimitPerBlock",
          "type": "uint256"
        },
        {
          "name": "newMintLimitPerSale",
          "type": "uint256"
        },
        {
          "name": "newMintStartBlockNumber",
          "type": "uint256"
        },
        {
          "name": "newMintIndexForSale",
          "type": "uint256"
        },
        {
          "name": "newMaxSaleAmount",
          "type": "uint256"
        },
        {
          "name": "newMintPrice",
          "type": "uint256"
        }
      ],
      "name": "setupSale",
      "outputs": [],
      "payable": false,
      "stateMutability": "nonpayable",
      "type": "function"
    },
    {
      "constant": true,
      "inputs": [
        {
          "name": "account",
          "type": "address"
        }
      ],
      "name": "isMinter",
      "outputs": [
        {
          "name": "",
          "type": "bool"
        }
      ],
      "payable": false,
      "stateMutability": "view",
      "type": "function"
    },
    {
      "constant": false,
      "inputs": [
        {
          "name": "_state",
          "type": "bool"
        }
      ],
      "name": "setWhitelistMintEnabled",
      "outputs": [],
      "payable": false,
      "stateMutability": "nonpayable",
      "type": "function"
    },
    {
      "constant": false,
      "inputs": [
        {
          "name": "from",
          "type": "address"
        },
        {
          "name": "to",
          "type": "address"
        },
        {
          "name": "tokenId",
          "type": "uint256"
        },
        {
          "name": "_data",
          "type": "bytes"
        }
      ],
      "name": "safeTransferFrom",
      "outputs": [],
      "payable": false,
      "stateMutability": "nonpayable",
      "type": "function"
    },
    {
      "constant": true,
      "inputs": [
        {
          "name": "tokenId",
          "type": "uint256"
        }
      ],
      "name": "tokenURI",
      "outputs": [
        {
          "name": "",
          "type": "string"
        }
      ],
      "payable": false,
      "stateMutability": "view",
      "type": "function"
    },
    {
      "constant": false,
      "inputs": [
        {
          "name": "requestedCount",
          "type": "uint256"
        },
        {
          "name": "_merkleProof",
          "type": "bytes32[]"
        }
      ],
      "name": "whitelistMint",
      "outputs": [],
      "payable": true,
      "stateMutability": "payable",
      "type": "function"
    },
    {
      "constant": true,
      "inputs": [
        {
          "name": "",
          "type": "address"
        }
      ],
      "name": "whitelistClaimed",
      "outputs": [
        {
          "name": "",
          "type": "bool"
        }
      ],
      "payable": false,
      "stateMutability": "view",
      "type": "function"
    },
    {
      "constant": true,
      "inputs": [
        {
          "name": "owner",
          "type": "address"
        },
        {
          "name": "operator",
          "type": "address"
        }
      ],
      "name": "isApprovedForAll",
      "outputs": [
        {
          "name": "",
          "type": "bool"
        }
      ],
      "payable": false,
      "stateMutability": "view",
      "type": "function"
    },
    {
      "constant": false,
      "inputs": [
        {
          "name": "_newNotRevealedURI",
          "type": "string"
        }
      ],
      "name": "setNotRevealedURI",
      "outputs": [],
      "payable": false,
      "stateMutability": "nonpayable",
      "type": "function"
    },
    {
      "inputs": [
        {
          "name": "name",
          "type": "string"
        },
        {
          "name": "symbol",
          "type": "string"
        }
      ],
      "payable": false,
      "stateMutability": "nonpayable",
      "type": "constructor"
    },
    {
      "anonymous": false,
      "inputs": [
        {
          "indexed": true,
          "name": "account",
          "type": "address"
        }
      ],
      "name": "MinterAdded",
      "type": "event"
    },
    {
      "anonymous": false,
      "inputs": [
        {
          "indexed": true,
          "name": "account",
          "type": "address"
        }
      ],
      "name": "MinterRemoved",
      "type": "event"
    },
    {
      "anonymous": false,
      "inputs": [
        {
          "indexed": true,
          "name": "from",
          "type": "address"
        },
        {
          "indexed": true,
          "name": "to",
          "type": "address"
        },
        {
          "indexed": true,
          "name": "tokenId",
          "type": "uint256"
        }
      ],
      "name": "Transfer",
      "type": "event"
    },
    {
      "anonymous": false,
      "inputs": [
        {
          "indexed": true,
          "name": "owner",
          "type": "address"
        },
        {
          "indexed": true,
          "name": "approved",
          "type": "address"
        },
        {
          "indexed": true,
          "name": "tokenId",
          "type": "uint256"
        }
      ],
      "name": "Approval",
      "type": "event"
    },
    {
      "anonymous": false,
      "inputs": [
        {
          "indexed": true,
          "name": "owner",
          "type": "address"
        },
        {
          "indexed": true,
          "name": "operator",
          "type": "address"
        },
        {
          "indexed": false,
          "name": "approved",
          "type": "bool"
        }
      ],
      "name": "ApprovalForAll",
      "type": "event"
    }
  ],
  "bytecode": "0x60806040526019805461ffff19169055601c805460ff191690553480156200002657600080fd5b50604051620034d5380380620034d5833981810160405260408110156200004c57600080fd5b8101908080516401000000008111156200006557600080fd5b820160208101848111156200007957600080fd5b81516401000000008111828201871017156200009457600080fd5b50509291906020018051640100000000811115620000b157600080fd5b82016020810184811115620000c557600080fd5b8151640100000000811182820187101715620000e057600080fd5b509093508492508391506200012090507f01ffc9a7000000000000000000000000000000000000000000000000000000006001600160e01b036200021e16565b620001547f80ac58cd000000000000000000000000000000000000000000000000000000006001600160e01b036200021e16565b620001887f780e9d63000000000000000000000000000000000000000000000000000000006001600160e01b036200021e16565b81516200019d9060099060208501906200046e565b508051620001b390600a9060208401906200046e565b50620001e87f5b5e139f000000000000000000000000000000000000000000000000000000006001600160e01b036200021e16565b50620002119050620002026001600160e01b03620002ed16565b6001600160e01b03620002f216565b5050600160105562000510565b7fffffffff000000000000000000000000000000000000000000000000000000008082161415620002b057604080517f08c379a000000000000000000000000000000000000000000000000000000000815260206004820152601c60248201527f4552433136353a20696e76616c696420696e7465726661636520696400000000604482015290519081900360640190fd5b7fffffffff00000000000000000000000000000000000000000000000000000000166000908152602081905260409020805460ff19166001179055565b335b90565b6200030d81600d6200034460201b620026e81790919060201c565b6040516001600160a01b038216907f6ae172837ea30b801fbfcdd4108aa1d5bf8ff775444fd70256b44e6bf3dfc3f690600090a250565b6200035982826001600160e01b03620003eb16565b15620003c657604080517f08c379a000000000000000000000000000000000000000000000000000000000815260206004820152601f60248201527f526f6c65733a206163636f756e7420616c72656164792068617320726f6c6500604482015290519081900360640190fd5b6001600160a01b0316600090815260209190915260409020805460ff19166001179055565b60006001600160a01b0382166200044e576040517f08c379a0000000000000000000000000000000000000000000000000000000008152600401808060200182810382526022815260200180620034b36022913960400191505060405180910390fd5b506001600160a01b03166000908152602091909152604090205460ff1690565b828054600181600116156101000203166002900490600052602060002090601f016020900481019282601f10620004b157805160ff1916838001178555620004e1565b82800160010185558215620004e1579182015b82811115620004e1578251825591602001919060010190620004c4565b50620004ef929150620004f3565b5090565b620002ef91905b80821115620004ef5760008155600101620004fa565b612f9380620005206000396000f3fe60806040526004361061021a5760003560e01c80636caede3d11610123578063a22cb465116100ab578063c87b56dd1161006f578063c87b56dd14610949578063d2cab05614610973578063db4bec44146109e8578063e985e9c514610a1b578063f2c4ce1e14610a565761021a565b8063a22cb46514610790578063a3867561146107cb578063aa271e1a14610819578063b767a0981461084c578063b88d4fde146108785761021a565b8063818668d7116100f2578063818668d7146106db578063940cd05b1461070757806395d89b4114610733578063983b2d5614610748578063986502751461077b5761021a565b80636caede3d1461063057806370a082311461064557806375a1ed08146106785780637cb64759146106b15761021a565b80632eb4a7ab116101a65780634f6ccce7116101755780634f6ccce714610501578063518302271461052b57806355f804b3146105405780636352211e146105f15780636c0360eb1461061b5761021a565b80632eb4a7ab1461045b5780632f745c59146104705780633ccfd60b146104a957806342842e0e146104be5761021a565b80630f4161aa116101ed5780630f4161aa1461037257806318160ddd146103875780631dd8792b146103ae57806323b872dd146103fb5780632db115441461043e5761021a565b806301ffc9a71461021f57806306fdde0314610267578063081812fc146102f1578063095ea7b314610337575b600080fd5b34801561022b57600080fd5b506102536004803603602081101561024257600080fd5b50356001600160e01b031916610b07565b604080519115158252519081900360200190f35b34801561027357600080fd5b5061027c610b2a565b6040805160208082528351818301528351919283929083019185019080838360005b838110156102b657818101518382015260200161029e565b50505050905090810190601f1680156102e35780820380516001836020036101000a031916815260200191505b509250505060405180910390f35b3480156102fd57600080fd5b5061031b6004803603602081101561031457600080fd5b5035610bc1565b604080516001600160a01b039092168252519081900360200190f35b34801561034357600080fd5b506103706004803603604081101561035a57600080fd5b506001600160a01b038135169060200135610c23565b005b34801561037e57600080fd5b50610253610d4b565b34801561039357600080fd5b5061039c610d59565b60408051918252519081900360200190f35b3480156103ba57600080fd5b506103c3610d5f565b604051808260e080838360005b838110156103e85781810151838201526020016103d0565b5050505090500191505060405180910390f35b34801561040757600080fd5b506103706004803603606081101561041e57600080fd5b506001600160a01b03813581169160208101359091169060400135610db5565b6103706004803603602081101561045457600080fd5b5035610e11565b34801561046757600080fd5b5061039c6110d6565b34801561047c57600080fd5b5061039c6004803603604081101561049357600080fd5b506001600160a01b0381351690602001356110dc565b3480156104b557600080fd5b5061037061115c565b3480156104ca57600080fd5b50610370600480360360608110156104e157600080fd5b506001600160a01b038135811691602081013590911690604001356111d7565b34801561050d57600080fd5b5061039c6004803603602081101561052457600080fd5b50356111f2565b34801561053757600080fd5b50610253611258565b34801561054c57600080fd5b506103706004803603602081101561056357600080fd5b810190602081018135600160201b81111561057d57600080fd5b82018360208201111561058f57600080fd5b803590602001918460018302840111600160201b831117156105b057600080fd5b91908080601f016020809104026020016040519081016040528093929190818152602001838380828437600092019190915250929550611261945050505050565b3480156105fd57600080fd5b5061031b6004803603602081101561061457600080fd5b50356112be565b34801561062757600080fd5b5061027c611312565b34801561063c57600080fd5b50610253611373565b34801561065157600080fd5b5061039c6004803603602081101561066857600080fd5b50356001600160a01b031661137c565b34801561068457600080fd5b506103706004803603604081101561069b57600080fd5b506001600160a01b0381351690602001356113e4565b3480156106bd57600080fd5b50610370600480360360208110156106d457600080fd5b50356114a4565b3480156106e757600080fd5b50610370600480360360208110156106fe57600080fd5b503515156114ef565b34801561071357600080fd5b506103706004803603602081101561072a57600080fd5b5035151561154f565b34801561073f57600080fd5b5061027c6115a8565b34801561075457600080fd5b506103706004803603602081101561076b57600080fd5b50356001600160a01b0316611609565b34801561078757600080fd5b50610370611658565b34801561079c57600080fd5b50610370600480360360408110156107b357600080fd5b506001600160a01b038135169060200135151561166a565b3480156107d757600080fd5b50610370600480360360e08110156107ee57600080fd5b5080359060208101359060408101359060608101359060808101359060a08101359060c0013561176f565b34801561082557600080fd5b506102536004803603602081101561083c57600080fd5b50356001600160a01b03166117d5565b34801561085857600080fd5b506103706004803603602081101561086f57600080fd5b503515156117e8565b34801561088457600080fd5b506103706004803603608081101561089b57600080fd5b6001600160a01b03823581169260208101359091169160408201359190810190608081016060820135600160201b8111156108d557600080fd5b8201836020820111156108e757600080fd5b803590602001918460018302840111600160201b8311171561090857600080fd5b91908080601f016020809104026020016040519081016040528093929190818152602001838380828437600092019190915250929550611841945050505050565b34801561095557600080fd5b5061027c6004803603602081101561096c57600080fd5b503561189f565b6103706004803603604081101561098957600080fd5b81359190810190604081016020820135600160201b8111156109aa57600080fd5b8201836020820111156109bc57600080fd5b803590602001918460208302840111600160201b831117156109dd57600080fd5b509092509050611ae6565b3480156109f457600080fd5b5061025360048036036020811015610a0b57600080fd5b50356001600160a01b0316611d33565b348015610a2757600080fd5b5061025360048036036040811015610a3e57600080fd5b506001600160a01b0381358116916020013516611d48565b348015610a6257600080fd5b5061037060048036036020811015610a7957600080fd5b810190602081018135600160201b811115610a9357600080fd5b820183602082011115610aa557600080fd5b803590602001918460018302840111600160201b83111715610ac657600080fd5b91908080601f016020809104026020016040519081016040528093929190818152602001838380828437600092019190915250929550611d76945050505050565b6001600160e01b0319811660009081526020819052604090205460ff165b919050565b60098054604080516020601f6002600019610100600188161502019095169490940493840181900481028201810190925282815260609390929091830182828015610bb65780601f10610b8b57610100808354040283529160200191610bb6565b820191906000526020600020905b815481529060010190602001808311610b9957829003601f168201915b505050505090505b90565b6000610bcc82611dcf565b610c075760405162461bcd60e51b815260040180806020018281038252602c815260200180612e48602c913960400191505060405180910390fd5b506000908152600260205260409020546001600160a01b031690565b6000610c2e826112be565b9050806001600160a01b0316836001600160a01b03161415610c815760405162461bcd60e51b8152600401808060200182810382526021815260200180612ebf6021913960400191505060405180910390fd5b806001600160a01b0316610c93611dec565b6001600160a01b03161480610cb45750610cb481610caf611dec565b611d48565b610cef5760405162461bcd60e51b8152600401808060200182810382526038815260200180612d4b6038913960400191505060405180910390fd5b60008281526002602052604080822080546001600160a01b0319166001600160a01b0387811691821790925591518593918516917f8c5be1e5ebec7d5bd14f71427d1e84f3dd0314c0f7b2291e5b200ac8c7c3b92591a4505050565b601954610100900460ff1681565b60075490565b610d67612b78565b610d6f612b78565b50506040805160e081018252600f5481526010546020820152601154918101919091526012546060820152601454608082015260155460a082015260165460c082015290565b610dc6610dc0611dec565b82611df0565b610e015760405162461bcd60e51b8152600401808060200182810382526031815260200180612ee06031913960400191505060405180910390fd5b610e0c838383611e94565b505050565b601954610100900460ff16610e6d576040805162461bcd60e51b815260206004820152601f60248201527f546865207075626c69632073616c65206973206e6f7420656e61626c65642100604482015290519081900360640190fd5b600f54336000908152600e60205260409020544391610e92919063ffffffff611eb316565b10610ed9576040805162461bcd60e51b8152602060048201526012602482015271109bdd081a5cc81b9bdd08185b1b1bddd95960721b604482015290519081900360640190fd5b601454431015610f22576040805162461bcd60e51b815260206004820152600f60248201526e139bdd081e595d081cdd185c9d1959608a1b604482015290519081900360640190fd5b600081118015610f3457506011548111155b610f6f5760405162461bcd60e51b8152600401808060200182810382526021815260200180612cda6021913960400191505060405180910390fd5b601654610f82908263ffffffff611f0d16565b3414610fc7576040805162461bcd60e51b815260206004820152600f60248201526e4e6f7420656e6f756768204b6c617960881b604482015290519081900360640190fd5b601554600101610fe282601054611eb390919063ffffffff16565b1115611029576040805162461bcd60e51b8152602060048201526011602482015270115e18d95959081b585e08185b5bdd5b9d607a1b604482015290519081900360640190fd5b601254816110363361137c565b01111561108a576040805162461bcd60e51b815260206004820152601c60248201527f457863656564206d617820616d6f756e742070657220706572736f6e00000000604482015290519081900360640190fd5b60005b818110156110c0576110a133601054611f66565b6010546110b590600163ffffffff611eb316565b60105560010161108d565b5050336000908152600e60205260409020439055565b601a5481565b60006110e78361137c565b82106111245760405162461bcd60e51b815260040180806020018281038252602b815260200180612c7d602b913960400191505060405180910390fd5b6001600160a01b038316600090815260056020526040902080548390811061114857fe5b906000526020600020015490505b92915050565b61116c611167611dec565b6117d5565b6111a75760405162461bcd60e51b8152600401808060200182810382526030815260200180612dd66030913960400191505060405180910390fd5b6040513390303180156108fc02916000818181858888f193505050501580156111d4573d6000803e3d6000fd5b50565b610e0c83838360405180602001604052806000815250611841565b60006111fc610d59565b82106112395760405162461bcd60e51b815260040180806020018281038252602c815260200180612f33602c913960400191505060405180910390fd5b6007828154811061124657fe5b90600052602060002001549050919050565b60195460ff1681565b61126c611167611dec565b6112a75760405162461bcd60e51b8152600401808060200182810382526030815260200180612dd66030913960400191505060405180910390fd5b80516112ba906017906020840190612b96565b5050565b6000818152600160205260408120546001600160a01b0316806111565760405162461bcd60e51b8152600401808060200182810382526029815260200180612dad6029913960400191505060405180910390fd5b600b8054604080516020601f6002600019610100600188161502019095169490940493840181900481028201810190925282815260609390929091830182828015610bb65780601f10610b8b57610100808354040283529160200191610bb6565b601c5460ff1681565b60006001600160a01b0382166113c35760405162461bcd60e51b815260040180806020018281038252602a815260200180612d83602a913960400191505060405180910390fd5b6001600160a01b038216600090815260036020526040902061115690611f83565b6113ef611167611dec565b61142a5760405162461bcd60e51b8152600401808060200182810382526030815260200180612dd66030913960400191505060405180910390fd5b6000811161146e576040805162461bcd60e51b815260206004820152600c60248201526b1e995c9bc81c995c5d595cdd60a21b604482015290519081900360640190fd5b60005b81811015610e0c5761148583601054611f66565b60105461149990600163ffffffff611eb316565b601055600101611471565b6114af611167611dec565b6114ea5760405162461bcd60e51b8152600401808060200182810382526030815260200180612dd66030913960400191505060405180910390fd5b601a55565b6114fa611167611dec565b6115355760405162461bcd60e51b8152600401808060200182810382526030815260200180612dd66030913960400191505060405180910390fd5b601980549115156101000261ff0019909216919091179055565b61155a611167611dec565b6115955760405162461bcd60e51b8152600401808060200182810382526030815260200180612dd66030913960400191505060405180910390fd5b6019805460ff1916911515919091179055565b600a8054604080516020601f6002600019610100600188161502019095169490940493840181900481028201810190925282815260609390929091830182828015610bb65780601f10610b8b57610100808354040283529160200191610bb6565b611614611167611dec565b61164f5760405162461bcd60e51b8152600401808060200182810382526030815260200180612dd66030913960400191505060405180910390fd5b6111d481611f87565b611668611663611dec565b611fcf565b565b611672611dec565b6001600160a01b0316826001600160a01b031614156116d8576040805162461bcd60e51b815260206004820152601960248201527f4552433732313a20617070726f766520746f2063616c6c657200000000000000604482015290519081900360640190fd5b80600460006116e5611dec565b6001600160a01b03908116825260208083019390935260409182016000908120918716808252919093529120805460ff191692151592909217909155611729611dec565b60408051841515815290516001600160a01b0392909216917f17307eab39ab6107e8899845ad3d59bd9653f200f220920489ca2b5937696c319181900360200190a35050565b61177a611167611dec565b6117b55760405162461bcd60e51b8152600401808060200182810382526030815260200180612dd66030913960400191505060405180910390fd5b600f96909655601194909455601292909255601455601055601555601655565b6000611156600d8363ffffffff61201716565b6117f3611167611dec565b61182e5760405162461bcd60e51b8152600401808060200182810382526030815260200180612dd66030913960400191505060405180910390fd5b601c805460ff1916911515919091179055565b61185261184c611dec565b83611df0565b61188d5760405162461bcd60e51b8152600401808060200182810382526031815260200180612ee06031913960400191505060405180910390fd5b6118998484848461207e565b50505050565b60606118aa82611dcf565b6118e55760405162461bcd60e51b815260040180806020018281038252602e815260200180612c4f602e913960400191505060405180910390fd5b60195460ff166119eb5760606118f96120d0565b9050600081511161191957604051806020016040528060008152506119e3565b8061192384612131565b6040516020018083805190602001908083835b602083106119555780518252601f199092019160209182019101611936565b51815160209384036101000a600019018019909216911617905285519190930192850191508083835b6020831061199d5780518252601f19909201916020918201910161197e565b6001836020036101000a0380198251168184511680821785525050505050509050018064173539b7b760d91b815250600501925050506040516020818303038152906040525b915050610b25565b60606119f56121f2565b90506000815111611a155760405180602001604052806000815250611adf565b80611a1f84612131565b6040516020018083805190602001908083835b60208310611a515780518252601f199092019160209182019101611a32565b51815160209384036101000a600019018019909216911617905285519190930192850191508083835b60208310611a995780518252601f199092019160209182019101611a7a565b6001836020036101000a0380198251168184511680821785525050505050509050018064173539b7b760d91b815250600501925050506040516020818303038152906040525b9392505050565b601c5460ff16611b275760405162461bcd60e51b8152600401808060200182810382526022815260200180612f116022913960400191505060405180910390fd5b601654611b3a908463ffffffff611f0d16565b3414611b7f576040805162461bcd60e51b815260206004820152600f60248201526e4e6f7420656e6f756768204b6c617960881b604482015290519081900360640190fd5b336000908152601b602052604090205460ff1615611be4576040805162461bcd60e51b815260206004820152601860248201527f4164647265737320616c726561647920636c61696d6564210000000000000000604482015290519081900360640190fd5b600083118015611bf657506011548311155b611c315760405162461bcd60e51b8152600401808060200182810382526021815260200180612cda6021913960400191505060405180910390fd5b604080513360601b60208083019190915282518083036014018152603483018085528151918301919091206054928602808501840190955285825293611c9a9391928792879283929091019084908082843760009201919091525050601a549150849050612253565b611cdc576040805162461bcd60e51b815260206004820152600e60248201526d496e76616c69642070726f6f662160901b604482015290519081900360640190fd5b60005b84811015611d1257611cf333601054611f66565b601054611d0790600163ffffffff611eb316565b601055600101611cdf565b5050336000908152601b60205260409020805460ff19166001179055505050565b601b6020526000908152604090205460ff1681565b6001600160a01b03918216600090815260046020908152604080832093909416825291909152205460ff1690565b611d81611167611dec565b611dbc5760405162461bcd60e51b8152600401808060200182810382526030815260200180612dd66030913960400191505060405180910390fd5b80516112ba906018906020840190612b96565b6000908152600160205260409020546001600160a01b0316151590565b3390565b6000611dfb82611dcf565b611e365760405162461bcd60e51b815260040180806020018281038252602c815260200180612d1f602c913960400191505060405180910390fd5b6000611e41836112be565b9050806001600160a01b0316846001600160a01b03161480611e7c5750836001600160a01b0316611e7184610bc1565b6001600160a01b0316145b80611e8c5750611e8c8185611d48565b949350505050565b611e9f8383836122fc565b611ea98382612440565b610e0c8282612535565b600082820183811015611adf576040805162461bcd60e51b815260206004820152601b60248201527f536166654d6174683a206164646974696f6e206f766572666c6f770000000000604482015290519081900360640190fd5b600082611f1c57506000611156565b82820282848281611f2957fe5b0414611adf5760405162461bcd60e51b8152600401808060200182810382526021815260200180612e276021913960400191505060405180910390fd5b611f708282612573565b611f7a8282612535565b6112ba816126a4565b5490565b611f98600d8263ffffffff6126e816565b6040516001600160a01b038216907f6ae172837ea30b801fbfcdd4108aa1d5bf8ff775444fd70256b44e6bf3dfc3f690600090a250565b611fe0600d8263ffffffff61276916565b6040516001600160a01b038216907fe94479a9f7e1952cc78f2d6baab678adc1b772d936c6583def489e524cb6669290600090a250565b60006001600160a01b03821661205e5760405162461bcd60e51b8152600401808060200182810382526022815260200180612e746022913960400191505060405180910390fd5b506001600160a01b03166000908152602091909152604090205460ff1690565b612089848484611e94565b612095848484846127d0565b6118995760405162461bcd60e51b8152600401808060200182810382526032815260200180612ca86032913960400191505060405180910390fd5b60188054604080516020601f6002600019610100600188161502019095169490940493840181900481028201810190925282815260609390929091830182828015610bb65780601f10610b8b57610100808354040283529160200191610bb6565b60608161215657506040805180820190915260018152600360fc1b6020820152610b25565b8160005b811561216e57600101600a8204915061215a565b6060816040519080825280601f01601f19166020018201604052801561219b576020820181803883390190505b50905060001982015b85156121e957600a860660300160f81b828280600190039350815181106121c757fe5b60200101906001600160f81b031916908160001a905350600a860495506121a4565b50949350505050565b60178054604080516020601f6002600019610100600188161502019095169490940493840181900481028201810190925282815260609390929091830182828015610bb65780601f10610b8b57610100808354040283529160200191610bb6565b600081815b85518110156122f157600086828151811061226f57fe5b602002602001015190508083116122b657828160405160200180838152602001828152602001925050506040516020818303038152906040528051906020012092506122e8565b808360405160200180838152602001828152602001925050506040516020818303038152906040528051906020012092505b50600101612258565b509092149392505050565b826001600160a01b031661230f826112be565b6001600160a01b0316146123545760405162461bcd60e51b8152600401808060200182810382526029815260200180612e966029913960400191505060405180910390fd5b6001600160a01b0382166123995760405162461bcd60e51b8152600401808060200182810382526024815260200180612cfb6024913960400191505060405180910390fd5b6123a281612a0b565b6001600160a01b03831660009081526003602052604090206123c390612a46565b6001600160a01b03821660009081526003602052604090206123e490612a5d565b60008181526001602052604080822080546001600160a01b0319166001600160a01b0386811691821790925591518493918716917fddf252ad1be2c89b69c2b068fc378daa952ba7f163c4a11628f55a4df523b3ef91a4505050565b6001600160a01b03821660009081526005602052604081205461246a90600163ffffffff612a6616565b600083815260066020526040902054909150808214612505576001600160a01b03841660009081526005602052604081208054849081106124a757fe5b906000526020600020015490508060056000876001600160a01b03166001600160a01b0316815260200190815260200160002083815481106124e557fe5b600091825260208083209091019290925591825260069052604090208190555b6001600160a01b038416600090815260056020526040902080549061252e906000198301612c14565b5050505050565b6001600160a01b0390911660009081526005602081815260408084208054868652600684529185208290559282526001810183559183529091200155565b6001600160a01b0382166125ce576040805162461bcd60e51b815260206004820181905260248201527f4552433732313a206d696e7420746f20746865207a65726f2061646472657373604482015290519081900360640190fd5b6125d781611dcf565b15612629576040805162461bcd60e51b815260206004820152601c60248201527f4552433732313a20746f6b656e20616c7265616479206d696e74656400000000604482015290519081900360640190fd5b600081815260016020908152604080832080546001600160a01b0319166001600160a01b03871690811790915583526003909152902061266890612a5d565b60405181906001600160a01b038416906000907fddf252ad1be2c89b69c2b068fc378daa952ba7f163c4a11628f55a4df523b3ef908290a45050565b600780546000838152600860205260408120829055600182018355919091527fa66cc928b5edb82af9bd49922954155ab7b0942694bea4ce44661d9a8736c6880155565b6126f28282612017565b15612744576040805162461bcd60e51b815260206004820152601f60248201527f526f6c65733a206163636f756e7420616c72656164792068617320726f6c6500604482015290519081900360640190fd5b6001600160a01b0316600090815260209190915260409020805460ff19166001179055565b6127738282612017565b6127ae5760405162461bcd60e51b8152600401808060200182810382526021815260200180612e066021913960400191505060405180910390fd5b6001600160a01b0316600090815260209190915260409020805460ff19169055565b60006127e4846001600160a01b0316612aa8565b6127f057506001611e8c565b600060606001600160a01b038616630a85bd0160e11b61280e611dec565b89888860405160240180856001600160a01b03166001600160a01b03168152602001846001600160a01b03166001600160a01b0316815260200183815260200180602001828103825283818151815260200191508051906020019080838360005b8381101561288757818101518382015260200161286f565b50505050905090810190601f1680156128b45780820380516001836020036101000a031916815260200191505b5060408051601f198184030181529181526020820180516001600160e01b03166001600160e01b0319909a16999099178952518151919890975087965094509250829150849050835b6020831061291c5780518252601f1990920191602091820191016128fd565b6001836020036101000a0380198251168184511680821785525050505050509050019150506000604051808303816000865af19150503d806000811461297e576040519150601f19603f3d011682016040523d82523d6000602084013e612983565b606091505b5091509150816129d45780511561299d5780518082602001fd5b60405162461bcd60e51b8152600401808060200182810382526032815260200180612ca86032913960400191505060405180910390fd5b60008180602001905160208110156129eb57600080fd5b50516001600160e01b031916630a85bd0160e11b149350611e8c92505050565b6000818152600260205260409020546001600160a01b0316156111d457600090815260026020526040902080546001600160a01b0319169055565b8054612a5990600163ffffffff612a6616565b9055565b80546001019055565b6000611adf83836040518060400160405280601e81526020017f536166654d6174683a207375627472616374696f6e206f766572666c6f770000815250612ae1565b6000813f7fc5d2460186f7233c927e7db2dcc703c0e500b653ca82273b7bfad8045d85a470818114801590611e8c575050151592915050565b60008184841115612b705760405162461bcd60e51b81526004018080602001828103825283818151815260200191508051906020019080838360005b83811015612b35578181015183820152602001612b1d565b50505050905090810190601f168015612b625780820380516001836020036101000a031916815260200191505b509250505060405180910390fd5b505050900390565b6040518060e001604052806007906020820280388339509192915050565b828054600181600116156101000203166002900490600052602060002090601f016020900481019282601f10612bd757805160ff1916838001178555612c04565b82800160010185558215612c04579182015b82811115612c04578251825591602001919060010190612be9565b50612c10929150612c34565b5090565b815481835581811115610e0c57600083815260209020610e0c9181019083015b610bbe91905b80821115612c105760008155600101612c3a56fe4b495031374d657461646174613a2055524920717565727920666f72206e6f6e6578697374656e7420746f6b656e455243373231456e756d657261626c653a206f776e657220696e646578206f7574206f6620626f756e64734552433732313a207472616e7366657220746f206e6f6e20455243373231526563656976657220696d706c656d656e746572546f6f206d616e79207265717565737473206f72207a65726f20726571756573744552433732313a207472616e7366657220746f20746865207a65726f20616464726573734552433732313a206f70657261746f7220717565727920666f72206e6f6e6578697374656e7420746f6b656e4552433732313a20617070726f76652063616c6c6572206973206e6f74206f776e6572206e6f7220617070726f76656420666f7220616c6c4552433732313a2062616c616e636520717565727920666f7220746865207a65726f20616464726573734552433732313a206f776e657220717565727920666f72206e6f6e6578697374656e7420746f6b656e4d696e746572526f6c653a2063616c6c657220646f6573206e6f74206861766520746865204d696e74657220726f6c65526f6c65733a206163636f756e7420646f6573206e6f74206861766520726f6c65536166654d6174683a206d756c7469706c69636174696f6e206f766572666c6f774552433732313a20617070726f76656420717565727920666f72206e6f6e6578697374656e7420746f6b656e526f6c65733a206163636f756e7420697320746865207a65726f20616464726573734552433732313a207472616e73666572206f6620746f6b656e2074686174206973206e6f74206f776e4552433732313a20617070726f76616c20746f2063757272656e74206f776e65724552433732313a207472616e736665722063616c6c6572206973206e6f74206f776e6572206e6f7220617070726f7665645468652077686974656c6973742073616c65206973206e6f7420656e61626c656421455243373231456e756d657261626c653a20676c6f62616c20696e646578206f7574206f6620626f756e6473a265627a7a723058204d4c46dcb0f9f9e6d986c53e54edefdbb9eb27b9a74988f0133363c96fad169164736f6c634300050a0032526f6c65733a206163636f756e7420697320746865207a65726f2061646472657373",
  "source": "pragma solidity ^0.5.0;\n\nimport \"./ERC721.sol\";\nimport \"./ERC721Enumerable.sol\";\nimport \"./ERC721Metadata.sol\";\nimport \"../../Testing.sol\";\n\n/**\n * @title Full ERC721 Token\n * @dev This implementation includes all the required and some optional functionality of the ERC721 standard\n * Moreover, it includes approve all functionality using operator terminology.\n *\n * See https://eips.ethereum.org/EIPS/eip-721\n */\ncontract ERC721Full is ERC721, ERC721Enumerable, ERC721Metadata, Testing {\n    constructor (string memory name, string memory symbol) public ERC721Metadata(name, symbol) {\n        // solhint-disable-previous-line no-empty-blocks\n    }\n}\n",
  "sourcePath": "C:\\Users\\MUS1\\WebstormProjects\\nft_klaytn_to_eth\\contracts\\token\\ERC721\\ERC721Full.sol",
  "compiler": {
    "name": "solc",
    "version": "0.5.10+commit.5a6ea5b1.Emscripten.clang"
  },
  "schemaVersion": "3.4.7",
  "updatedAt": "2022-06-13T07:58:35.751Z",
  "devdoc": {
    "details": "This implementation includes all the required and some optional functionality of the ERC721 standard Moreover, it includes approve all functionality using operator terminology. * See https://eips.ethereum.org/EIPS/eip-721",
    "methods": {
      "approve(address,uint256)": {
        "details": "Approves another address to transfer the given token ID The zero address indicates there is no approved address. There can only be one approved address per token at a given time. Can only be called by the token owner or an approved operator.",
        "params": {
          "to": "address to be approved for the given token ID",
          "tokenId": "uint256 ID of the token to be approved"
        }
      },
      "balanceOf(address)": {
        "details": "Gets the balance of the specified address.",
        "params": {
          "owner": "address to query the balance of"
        },
        "return": "uint256 representing the amount owned by the passed address"
      },
      "baseURI()": {
        "details": "Returns the base URI set via {_setBaseURI}. This will be automatically added as a preffix in {tokenURI} to each token's URI, when they are non-empty.    * _Available since v2.5.0._"
      },
      "getApproved(uint256)": {
        "details": "Gets the approved address for a token ID, or zero if no address set Reverts if the token ID does not exist.",
        "params": {
          "tokenId": "uint256 ID of the token to query the approval of"
        },
        "return": "address currently approved for the given token ID"
      },
      "isApprovedForAll(address,address)": {
        "details": "Tells whether an operator is approved by a given owner.",
        "params": {
          "operator": "operator address which you want to query the approval of",
          "owner": "owner address which you want to query the approval of"
        },
        "return": "bool whether the given operator is approved by the given owner"
      },
      "name()": {
        "details": "Gets the token name.",
        "return": "string representing the token name"
      },
      "ownerOf(uint256)": {
        "details": "Gets the owner of the specified token ID.",
        "params": {
          "tokenId": "uint256 ID of the token to query the owner of"
        },
        "return": "address currently marked as the owner of the given token ID"
      },
      "safeTransferFrom(address,address,uint256)": {
        "details": "Safely transfers the ownership of a given token ID to another address If the target address is a contract, it must implement {IERC721Receiver-onERC721Received}, which is called upon a safe transfer, and return the magic value `bytes4(keccak256(\"onERC721Received(address,address,uint256,bytes)\"))`; otherwise, the transfer is reverted. Requires the msg.sender to be the owner, approved, or operator",
        "params": {
          "from": "current owner of the token",
          "to": "address to receive the ownership of the given token ID",
          "tokenId": "uint256 ID of the token to be transferred"
        }
      },
      "safeTransferFrom(address,address,uint256,bytes)": {
        "details": "Safely transfers the ownership of a given token ID to another address If the target address is a contract, it must implement {IERC721Receiver-onERC721Received}, which is called upon a safe transfer, and return the magic value `bytes4(keccak256(\"onERC721Received(address,address,uint256,bytes)\"))`; otherwise, the transfer is reverted. Requires the _msgSender() to be the owner, approved, or operator",
        "params": {
          "_data": "bytes data to send along with a safe transfer check",
          "from": "current owner of the token",
          "to": "address to receive the ownership of the given token ID",
          "tokenId": "uint256 ID of the token to be transferred"
        }
      },
      "setApprovalForAll(address,bool)": {
        "details": "Sets or unsets the approval of a given operator An operator is allowed to transfer all tokens of the sender on their behalf.",
        "params": {
          "approved": "representing the status of the approval to be set",
          "to": "operator address to set the approval"
        }
      },
      "supportsInterface(bytes4)": {
        "details": "See {IERC165-supportsInterface}.     * Time complexity O(1), guaranteed to always use less than 30 000 gas."
      },
      "symbol()": {
        "details": "Gets the token symbol.",
        "return": "string representing the token symbol"
      },
      "tokenByIndex(uint256)": {
        "details": "Gets the token ID at a given index of all the tokens in this contract Reverts if the index is greater or equal to the total number of tokens.",
        "params": {
          "index": "uint256 representing the index to be accessed of the tokens list"
        },
        "return": "uint256 token ID at the given index of the tokens list"
      },
      "tokenOfOwnerByIndex(address,uint256)": {
        "details": "Gets the token ID at a given index of the tokens list of the requested owner.",
        "params": {
          "index": "uint256 representing the index to be accessed of the requested tokens list",
          "owner": "address owning the tokens list to be accessed"
        },
        "return": "uint256 token ID at the given index of the tokens list owned by the requested address"
      },
      "totalSupply()": {
        "details": "Gets the total amount of tokens stored by the contract.",
        "return": "uint256 representing the total amount of tokens"
      },
      "transferFrom(address,address,uint256)": {
        "details": "Transfers the ownership of a given token ID to another address. Usage of this method is discouraged, use {safeTransferFrom} whenever possible. Requires the msg.sender to be the owner, approved, or operator.",
        "params": {
          "from": "current owner of the token",
          "to": "address to receive the ownership of the given token ID",
          "tokenId": "uint256 ID of the token to be transferred"
        }
      }
    },
    "title": "Full ERC721 Token"
  },
  "userdoc": {
    "methods": {}
  }
}