{
  "contractName": "TestingToken",
  "abi": [
    {
      "constant": true,
      "inputs": [
        {
          "name": "interfaceId",
          "type": "bytes4"
        }
      ],
      "name": "supportsInterface",
      "outputs": [
        {
          "name": "",
          "type": "bool"
        }
      ],
      "payable": false,
      "stateMutability": "view",
      "type": "function"
    },
    {
      "constant": true,
      "inputs": [],
      "name": "name",
      "outputs": [
        {
          "name": "",
          "type": "string"
        }
      ],
      "payable": false,
      "stateMutability": "view",
      "type": "function"
    },
    {
      "constant": true,
      "inputs": [
        {
          "name": "tokenId",
          "type": "uint256"
        }
      ],
      "name": "getApproved",
      "outputs": [
        {
          "name": "",
          "type": "address"
        }
      ],
      "payable": false,
      "stateMutability": "view",
      "type": "function"
    },
    {
      "constant": false,
      "inputs": [
        {
          "name": "to",
          "type": "address"
        },
        {
          "name": "tokenId",
          "type": "uint256"
        }
      ],
      "name": "approve",
      "outputs": [],
      "payable": false,
      "stateMutability": "nonpayable",
      "type": "function"
    },
    {
      "constant": true,
      "inputs": [],
      "name": "publicMintEnabled",
      "outputs": [
        {
          "name": "",
          "type": "bool"
        }
      ],
      "payable": false,
      "stateMutability": "view",
      "type": "function"
    },
    {
      "constant": true,
      "inputs": [],
      "name": "totalSupply",
      "outputs": [
        {
          "name": "",
          "type": "uint256"
        }
      ],
      "payable": false,
      "stateMutability": "view",
      "type": "function"
    },
    {
      "constant": true,
      "inputs": [],
      "name": "mintingInformation",
      "outputs": [
        {
          "name": "",
          "type": "uint256[7]"
        }
      ],
      "payable": false,
      "stateMutability": "view",
      "type": "function"
    },
    {
      "constant": false,
      "inputs": [
        {
          "name": "from",
          "type": "address"
        },
        {
          "name": "to",
          "type": "address"
        },
        {
          "name": "tokenId",
          "type": "uint256"
        }
      ],
      "name": "transferFrom",
      "outputs": [],
      "payable": false,
      "stateMutability": "nonpayable",
      "type": "function"
    },
    {
      "constant": false,
      "inputs": [
        {
          "name": "requestedCount",
          "type": "uint256"
        }
      ],
      "name": "publicMint",
      "outputs": [],
      "payable": true,
      "stateMutability": "payable",
      "type": "function"
    },
    {
      "constant": true,
      "inputs": [],
      "name": "merkleRoot",
      "outputs": [
        {
          "name": "",
          "type": "bytes32"
        }
      ],
      "payable": false,
      "stateMutability": "view",
      "type": "function"
    },
    {
      "constant": true,
      "inputs": [
        {
          "name": "owner",
          "type": "address"
        },
        {
          "name": "index",
          "type": "uint256"
        }
      ],
      "name": "tokenOfOwnerByIndex",
      "outputs": [
        {
          "name": "",
          "type": "uint256"
        }
      ],
      "payable": false,
      "stateMutability": "view",
      "type": "function"
    },
    {
      "constant": false,
      "inputs": [],
      "name": "withdraw",
      "outputs": [],
      "payable": false,
      "stateMutability": "nonpayable",
      "type": "function"
    },
    {
      "constant": false,
      "inputs": [],
      "name": "unpause",
      "outputs": [],
      "payable": false,
      "stateMutability": "nonpayable",
      "type": "function"
    },
    {
      "constant": false,
      "inputs": [
        {
          "name": "to",
          "type": "address"
        },
        {
          "name": "tokenId",
          "type": "uint256"
        }
      ],
      "name": "mint",
      "outputs": [
        {
          "name": "",
          "type": "bool"
        }
      ],
      "payable": false,
      "stateMutability": "nonpayable",
      "type": "function"
    },
    {
      "constant": false,
      "inputs": [
        {
          "name": "from",
          "type": "address"
        },
        {
          "name": "to",
          "type": "address"
        },
        {
          "name": "tokenId",
          "type": "uint256"
        }
      ],
      "name": "safeTransferFrom",
      "outputs": [],
      "payable": false,
      "stateMutability": "nonpayable",
      "type": "function"
    },
    {
      "constant": false,
      "inputs": [
        {
          "name": "tokenId",
          "type": "uint256"
        }
      ],
      "name": "burn",
      "outputs": [],
      "payable": false,
      "stateMutability": "nonpayable",
      "type": "function"
    },
    {
      "constant": true,
      "inputs": [
        {
          "name": "account",
          "type": "address"
        }
      ],
      "name": "isPauser",
      "outputs": [
        {
          "name": "",
          "type": "bool"
        }
      ],
      "payable": false,
      "stateMutability": "view",
      "type": "function"
    },
    {
      "constant": true,
      "inputs": [
        {
          "name": "index",
          "type": "uint256"
        }
      ],
      "name": "tokenByIndex",
      "outputs": [
        {
          "name": "",
          "type": "uint256"
        }
      ],
      "payable": false,
      "stateMutability": "view",
      "type": "function"
    },
    {
      "constant": false,
      "inputs": [
        {
          "name": "to",
          "type": "address"
        },
        {
          "name": "tokenId",
          "type": "uint256"
        },
        {
          "name": "tokenURI",
          "type": "string"
        }
      ],
      "name": "mintWithTokenURI",
      "outputs": [
        {
          "name": "",
          "type": "bool"
        }
      ],
      "payable": false,
      "stateMutability": "nonpayable",
      "type": "function"
    },
    {
      "constant": true,
      "inputs": [],
      "name": "revealed",
      "outputs": [
        {
          "name": "",
          "type": "bool"
        }
      ],
      "payable": false,
      "stateMutability": "view",
      "type": "function"
    },
    {
      "constant": false,
      "inputs": [
        {
          "name": "_newBaseURI",
          "type": "string"
        }
      ],
      "name": "setBaseURI",
      "outputs": [],
      "payable": false,
      "stateMutability": "nonpayable",
      "type": "function"
    },
    {
      "constant": true,
      "inputs": [],
      "name": "paused",
      "outputs": [
        {
          "name": "",
          "type": "bool"
        }
      ],
      "payable": false,
      "stateMutability": "view",
      "type": "function"
    },
    {
      "constant": true,
      "inputs": [
        {
          "name": "tokenId",
          "type": "uint256"
        }
      ],
      "name": "ownerOf",
      "outputs": [
        {
          "name": "",
          "type": "address"
        }
      ],
      "payable": false,
      "stateMutability": "view",
      "type": "function"
    },
    {
      "constant": true,
      "inputs": [],
      "name": "baseURI",
      "outputs": [
        {
          "name": "",
          "type": "string"
        }
      ],
      "payable": false,
      "stateMutability": "view",
      "type": "function"
    },
    {
      "constant": true,
      "inputs": [],
      "name": "whitelistMintEnabled",
      "outputs": [
        {
          "name": "",
          "type": "bool"
        }
      ],
      "payable": false,
      "stateMutability": "view",
      "type": "function"
    },
    {
      "constant": false,
      "inputs": [],
      "name": "renouncePauser",
      "outputs": [],
      "payable": false,
      "stateMutability": "nonpayable",
      "type": "function"
    },
    {
      "constant": true,
      "inputs": [
        {
          "name": "owner",
          "type": "address"
        }
      ],
      "name": "balanceOf",
      "outputs": [
        {
          "name": "",
          "type": "uint256"
        }
      ],
      "payable": false,
      "stateMutability": "view",
      "type": "function"
    },
    {
      "constant": false,
      "inputs": [
        {
          "name": "user",
          "type": "address"
        },
        {
          "name": "requestedCount",
          "type": "uint256"
        }
      ],
      "name": "airDropMint",
      "outputs": [],
      "payable": false,
      "stateMutability": "nonpayable",
      "type": "function"
    },
    {
      "constant": false,
      "inputs": [
        {
          "name": "_merkleRoot",
          "type": "bytes32"
        }
      ],
      "name": "setMerkleRoot",
      "outputs": [],
      "payable": false,
      "stateMutability": "nonpayable",
      "type": "function"
    },
    {
      "constant": false,
      "inputs": [
        {
          "name": "_state",
          "type": "bool"
        }
      ],
      "name": "setPublicMintEnabled",
      "outputs": [],
      "payable": false,
      "stateMutability": "nonpayable",
      "type": "function"
    },
    {
      "constant": false,
      "inputs": [
        {
          "name": "account",
          "type": "address"
        }
      ],
      "name": "addPauser",
      "outputs": [],
      "payable": false,
      "stateMutability": "nonpayable",
      "type": "function"
    },
    {
      "constant": false,
      "inputs": [],
      "name": "pause",
      "outputs": [],
      "payable": false,
      "stateMutability": "nonpayable",
      "type": "function"
    },
    {
      "constant": false,
      "inputs": [
        {
          "name": "to",
          "type": "address"
        },
        {
          "name": "tokenId",
          "type": "uint256"
        },
        {
          "name": "_data",
          "type": "bytes"
        }
      ],
      "name": "safeMint",
      "outputs": [
        {
          "name": "",
          "type": "bool"
        }
      ],
      "payable": false,
      "stateMutability": "nonpayable",
      "type": "function"
    },
    {
      "constant": false,
      "inputs": [
        {
          "name": "_state",
          "type": "bool"
        }
      ],
      "name": "reveal",
      "outputs": [],
      "payable": false,
      "stateMutability": "nonpayable",
      "type": "function"
    },
    {
      "constant": true,
      "inputs": [],
      "name": "symbol",
      "outputs": [
        {
          "name": "",
          "type": "string"
        }
      ],
      "payable": false,
      "stateMutability": "view",
      "type": "function"
    },
    {
      "constant": false,
      "inputs": [
        {
          "name": "account",
          "type": "address"
        }
      ],
      "name": "addMinter",
      "outputs": [],
      "payable": false,
      "stateMutability": "nonpayable",
      "type": "function"
    },
    {
      "constant": false,
      "inputs": [],
      "name": "renounceMinter",
      "outputs": [],
      "payable": false,
      "stateMutability": "nonpayable",
      "type": "function"
    },
    {
      "constant": false,
      "inputs": [
        {
          "name": "to",
          "type": "address"
        },
        {
          "name": "tokenId",
          "type": "uint256"
        }
      ],
      "name": "safeMint",
      "outputs": [
        {
          "name": "",
          "type": "bool"
        }
      ],
      "payable": false,
      "stateMutability": "nonpayable",
      "type": "function"
    },
    {
      "constant": false,
      "inputs": [
        {
          "name": "to",
          "type": "address"
        },
        {
          "name": "approved",
          "type": "bool"
        }
      ],
      "name": "setApprovalForAll",
      "outputs": [],
      "payable": false,
      "stateMutability": "nonpayable",
      "type": "function"
    },
    {
      "constant": false,
      "inputs": [
        {
          "name": "newAntibotInterval",
          "type": "uint256"
        },
        {
          "name": "newMintLimitPerBlock",
          "type": "uint256"
        },
        {
          "name": "newMintLimitPerSale",
          "type": "uint256"
        },
        {
          "name": "newMintStartBlockNumber",
          "type": "uint256"
        },
        {
          "name": "newMintIndexForSale",
          "type": "uint256"
        },
        {
          "name": "newMaxSaleAmount",
          "type": "uint256"
        },
        {
          "name": "newMintPrice",
          "type": "uint256"
        }
      ],
      "name": "setupSale",
      "outputs": [],
      "payable": false,
      "stateMutability": "nonpayable",
      "type": "function"
    },
    {
      "constant": true,
      "inputs": [
        {
          "name": "account",
          "type": "address"
        }
      ],
      "name": "isMinter",
      "outputs": [
        {
          "name": "",
          "type": "bool"
        }
      ],
      "payable": false,
      "stateMutability": "view",
      "type": "function"
    },
    {
      "constant": false,
      "inputs": [
        {
          "name": "_state",
          "type": "bool"
        }
      ],
      "name": "setWhitelistMintEnabled",
      "outputs": [],
      "payable": false,
      "stateMutability": "nonpayable",
      "type": "function"
    },
    {
      "constant": false,
      "inputs": [
        {
          "name": "from",
          "type": "address"
        },
        {
          "name": "to",
          "type": "address"
        },
        {
          "name": "tokenId",
          "type": "uint256"
        },
        {
          "name": "_data",
          "type": "bytes"
        }
      ],
      "name": "safeTransferFrom",
      "outputs": [],
      "payable": false,
      "stateMutability": "nonpayable",
      "type": "function"
    },
    {
      "constant": true,
      "inputs": [
        {
          "name": "tokenId",
          "type": "uint256"
        }
      ],
      "name": "tokenURI",
      "outputs": [
        {
          "name": "",
          "type": "string"
        }
      ],
      "payable": false,
      "stateMutability": "view",
      "type": "function"
    },
    {
      "constant": false,
      "inputs": [
        {
          "name": "requestedCount",
          "type": "uint256"
        },
        {
          "name": "_merkleProof",
          "type": "bytes32[]"
        }
      ],
      "name": "whitelistMint",
      "outputs": [],
      "payable": true,
      "stateMutability": "payable",
      "type": "function"
    },
    {
      "constant": true,
      "inputs": [
        {
          "name": "",
          "type": "address"
        }
      ],
      "name": "whitelistClaimed",
      "outputs": [
        {
          "name": "",
          "type": "bool"
        }
      ],
      "payable": false,
      "stateMutability": "view",
      "type": "function"
    },
    {
      "constant": true,
      "inputs": [
        {
          "name": "owner",
          "type": "address"
        },
        {
          "name": "operator",
          "type": "address"
        }
      ],
      "name": "isApprovedForAll",
      "outputs": [
        {
          "name": "",
          "type": "bool"
        }
      ],
      "payable": false,
      "stateMutability": "view",
      "type": "function"
    },
    {
      "constant": false,
      "inputs": [
        {
          "name": "_newNotRevealedURI",
          "type": "string"
        }
      ],
      "name": "setNotRevealedURI",
      "outputs": [],
      "payable": false,
      "stateMutability": "nonpayable",
      "type": "function"
    },
    {
      "inputs": [
        {
          "name": "name",
          "type": "string"
        },
        {
          "name": "symbol",
          "type": "string"
        }
      ],
      "payable": false,
      "stateMutability": "nonpayable",
      "type": "constructor"
    },
    {
      "anonymous": false,
      "inputs": [
        {
          "indexed": false,
          "name": "account",
          "type": "address"
        }
      ],
      "name": "Paused",
      "type": "event"
    },
    {
      "anonymous": false,
      "inputs": [
        {
          "indexed": false,
          "name": "account",
          "type": "address"
        }
      ],
      "name": "Unpaused",
      "type": "event"
    },
    {
      "anonymous": false,
      "inputs": [
        {
          "indexed": true,
          "name": "account",
          "type": "address"
        }
      ],
      "name": "PauserAdded",
      "type": "event"
    },
    {
      "anonymous": false,
      "inputs": [
        {
          "indexed": true,
          "name": "account",
          "type": "address"
        }
      ],
      "name": "PauserRemoved",
      "type": "event"
    },
    {
      "anonymous": false,
      "inputs": [
        {
          "indexed": true,
          "name": "account",
          "type": "address"
        }
      ],
      "name": "MinterAdded",
      "type": "event"
    },
    {
      "anonymous": false,
      "inputs": [
        {
          "indexed": true,
          "name": "account",
          "type": "address"
        }
      ],
      "name": "MinterRemoved",
      "type": "event"
    },
    {
      "anonymous": false,
      "inputs": [
        {
          "indexed": true,
          "name": "from",
          "type": "address"
        },
        {
          "indexed": true,
          "name": "to",
          "type": "address"
        },
        {
          "indexed": true,
          "name": "tokenId",
          "type": "uint256"
        }
      ],
      "name": "Transfer",
      "type": "event"
    },
    {
      "anonymous": false,
      "inputs": [
        {
          "indexed": true,
          "name": "owner",
          "type": "address"
        },
        {
          "indexed": true,
          "name": "approved",
          "type": "address"
        },
        {
          "indexed": true,
          "name": "tokenId",
          "type": "uint256"
        }
      ],
      "name": "Approval",
      "type": "event"
    },
    {
      "anonymous": false,
      "inputs": [
        {
          "indexed": true,
          "name": "owner",
          "type": "address"
        },
        {
          "indexed": true,
          "name": "operator",
          "type": "address"
        },
        {
          "indexed": false,
          "name": "approved",
          "type": "bool"
        }
      ],
      "name": "ApprovalForAll",
      "type": "event"
    }
  ],
  "bytecode": "0x60806040526019805461ffff19169055601c805460ff191690553480156200002657600080fd5b50604051620041e3380380620041e3833981810160405260408110156200004c57600080fd5b8101908080516401000000008111156200006557600080fd5b820160208101848111156200007957600080fd5b81516401000000008111828201871017156200009457600080fd5b50509291906020018051640100000000811115620000b157600080fd5b82016020810184811115620000c557600080fd5b8151640100000000811182820187101715620000e057600080fd5b5090935084925083915082905081620001227f01ffc9a7000000000000000000000000000000000000000000000000000000006001600160e01b036200025216565b620001567f80ac58cd000000000000000000000000000000000000000000000000000000006001600160e01b036200025216565b6200018a7f780e9d63000000000000000000000000000000000000000000000000000000006001600160e01b036200025216565b81516200019f906009906020850190620004f4565b508051620001b590600a906020840190620004f4565b50620001ea7f5b5e139f000000000000000000000000000000000000000000000000000000006001600160e01b036200025216565b50620002139050620002046001600160e01b036200032116565b6001600160e01b036200032616565b5050600160105562000240620002316001600160e01b036200032116565b6001600160e01b036200037816565b5050601e805460ff1916905562000596565b7fffffffff000000000000000000000000000000000000000000000000000000008082161415620002e457604080517f08c379a000000000000000000000000000000000000000000000000000000000815260206004820152601c60248201527f4552433136353a20696e76616c696420696e7465726661636520696400000000604482015290519081900360640190fd5b7fffffffff00000000000000000000000000000000000000000000000000000000166000908152602081905260409020805460ff19166001179055565b335b90565b6200034181600d620003ca60201b62002f0a1790919060201c565b6040516001600160a01b038216907f6ae172837ea30b801fbfcdd4108aa1d5bf8ff775444fd70256b44e6bf3dfc3f690600090a250565b6200039381601d620003ca60201b62002f0a1790919060201c565b6040516001600160a01b038216907f6719d08c1888103bea251a4ed56406bd0c3e69723c8a1686e017e7bbe159b6f890600090a250565b620003df82826001600160e01b036200047116565b156200044c57604080517f08c379a000000000000000000000000000000000000000000000000000000000815260206004820152601f60248201527f526f6c65733a206163636f756e7420616c72656164792068617320726f6c6500604482015290519081900360640190fd5b6001600160a01b0316600090815260209190915260409020805460ff19166001179055565b60006001600160a01b038216620004d4576040517f08c379a0000000000000000000000000000000000000000000000000000000008152600401808060200182810382526022815260200180620041c16022913960400191505060405180910390fd5b506001600160a01b03166000908152602091909152604090205460ff1690565b828054600181600116156101000203166002900490600052602060002090601f016020900481019282601f106200053757805160ff191683800117855562000567565b8280016001018555821562000567579182015b82811115620005675782518255916020019190600101906200054a565b506200057592915062000579565b5090565b6200032391905b8082111562000575576000815560010162000580565b613c1b80620005a66000396000f3fe6080604052600436106102935760003560e01c80636caede3d1161015a57806398650275116100c1578063b88d4fde1161007a578063b88d4fde14610bd3578063c87b56dd14610ca4578063d2cab05614610cce578063db4bec4414610d43578063e985e9c514610d76578063f2c4ce1e14610db157610293565b80639865027514610a9d578063a144819414610ab2578063a22cb46514610aeb578063a386756114610b26578063aa271e1a14610b74578063b767a09814610ba757610293565b806382dc1ec41161011357806382dc1ec41461091b5780638456cb591461094e5780638832e6e314610963578063940cd05b14610a2957806395d89b4114610a55578063983b2d5614610a6a57610293565b80636caede3d1461082f5780636ef8d66d1461084457806370a082311461085957806375a1ed081461088c5780637cb64759146108c5578063818668d7146108ef57610293565b80633f4ba83a116101fe57806350bb4e7f116101b757806350bb4e7f1461064f578063518302271461071557806355f804b31461072a5780635c975abb146107db5780636352211e146107f05780636c0360eb1461081a57610293565b80633f4ba83a1461053757806340c10f191461054c57806342842e0e1461058557806342966c68146105c857806346fbf68e146105f25780634f6ccce71461062557610293565b80631dd8792b116102505780631dd8792b1461042757806323b872dd146104745780632db11544146104b75780632eb4a7ab146104d45780632f745c59146104e95780633ccfd60b1461052257610293565b806301ffc9a71461029857806306fdde03146102e0578063081812fc1461036a578063095ea7b3146103b05780630f4161aa146103eb57806318160ddd14610400575b600080fd5b3480156102a457600080fd5b506102cc600480360360208110156102bb57600080fd5b50356001600160e01b031916610e62565b604080519115158252519081900360200190f35b3480156102ec57600080fd5b506102f5610e85565b6040805160208082528351818301528351919283929083019185019080838360005b8381101561032f578181015183820152602001610317565b50505050905090810190601f16801561035c5780820380516001836020036101000a031916815260200191505b509250505060405180910390f35b34801561037657600080fd5b506103946004803603602081101561038d57600080fd5b5035610f1c565b604080516001600160a01b039092168252519081900360200190f35b3480156103bc57600080fd5b506103e9600480360360408110156103d357600080fd5b506001600160a01b038135169060200135610f7e565b005b3480156103f757600080fd5b506102cc610fd7565b34801561040c57600080fd5b50610415610fe5565b60408051918252519081900360200190f35b34801561043357600080fd5b5061043c610feb565b604051808260e080838360005b83811015610461578181015183820152602001610449565b5050505090500191505060405180910390f35b34801561048057600080fd5b506103e96004803603606081101561049757600080fd5b506001600160a01b03813581169160208101359091169060400135611041565b6103e9600480360360208110156104cd57600080fd5b503561109d565b3480156104e057600080fd5b50610415611362565b3480156104f557600080fd5b506104156004803603604081101561050c57600080fd5b506001600160a01b038135169060200135611368565b34801561052e57600080fd5b506103e96113e8565b34801561054357600080fd5b506103e9611463565b34801561055857600080fd5b506102cc6004803603604081101561056f57600080fd5b506001600160a01b03813516906020013561154c565b34801561059157600080fd5b506103e9600480360360608110156105a857600080fd5b506001600160a01b038135811691602081013590911690604001356115a7565b3480156105d457600080fd5b506103e9600480360360208110156105eb57600080fd5b50356115c2565b3480156105fe57600080fd5b506102cc6004803603602081101561061557600080fd5b50356001600160a01b0316611611565b34801561063157600080fd5b506104156004803603602081101561064857600080fd5b5035611624565b34801561065b57600080fd5b506102cc6004803603606081101561067257600080fd5b6001600160a01b0382351691602081013591810190606081016040820135600160201b8111156106a157600080fd5b8201836020820111156106b357600080fd5b803590602001918460018302840111600160201b831117156106d457600080fd5b91908080601f01602080910402602001604051908101604052809392919081815260200183838082843760009201919091525092955061168a945050505050565b34801561072157600080fd5b506102cc6116f0565b34801561073657600080fd5b506103e96004803603602081101561074d57600080fd5b810190602081018135600160201b81111561076757600080fd5b82018360208201111561077957600080fd5b803590602001918460018302840111600160201b8311171561079a57600080fd5b91908080601f0160208091040260200160405190810160405280939291908181526020018383808284376000920191909152509295506116f9945050505050565b3480156107e757600080fd5b506102cc611752565b3480156107fc57600080fd5b506103946004803603602081101561081357600080fd5b503561175b565b34801561082657600080fd5b506102f56117af565b34801561083b57600080fd5b506102cc611810565b34801561085057600080fd5b506103e9611819565b34801561086557600080fd5b506104156004803603602081101561087c57600080fd5b50356001600160a01b031661182b565b34801561089857600080fd5b506103e9600480360360408110156108af57600080fd5b506001600160a01b038135169060200135611893565b3480156108d157600080fd5b506103e9600480360360208110156108e857600080fd5b5035611953565b3480156108fb57600080fd5b506103e96004803603602081101561091257600080fd5b5035151561199e565b34801561092757600080fd5b506103e96004803603602081101561093e57600080fd5b50356001600160a01b03166119fe565b34801561095a57600080fd5b506103e9611a4d565b34801561096f57600080fd5b506102cc6004803603606081101561098657600080fd5b6001600160a01b0382351691602081013591810190606081016040820135600160201b8111156109b557600080fd5b8201836020820111156109c757600080fd5b803590602001918460018302840111600160201b831117156109e857600080fd5b91908080601f016020809104026020016040519081016040528093929190818152602001838380828437600092019190915250929550611b14945050505050565b348015610a3557600080fd5b506103e960048036036020811015610a4c57600080fd5b50351515611b67565b348015610a6157600080fd5b506102f5611bc0565b348015610a7657600080fd5b506103e960048036036020811015610a8d57600080fd5b50356001600160a01b0316611c21565b348015610aa957600080fd5b506103e9611c70565b348015610abe57600080fd5b506102cc60048036036040811015610ad557600080fd5b506001600160a01b038135169060200135611c80565b348015610af757600080fd5b506103e960048036036040811015610b0e57600080fd5b506001600160a01b0381351690602001351515611cd2565b348015610b3257600080fd5b506103e9600480360360e0811015610b4957600080fd5b5080359060208101359060408101359060608101359060808101359060a08101359060c00135611d27565b348015610b8057600080fd5b506102cc60048036036020811015610b9757600080fd5b50356001600160a01b0316611d8d565b348015610bb357600080fd5b506103e960048036036020811015610bca57600080fd5b50351515611da0565b348015610bdf57600080fd5b506103e960048036036080811015610bf657600080fd5b6001600160a01b03823581169260208101359091169160408201359190810190608081016060820135600160201b811115610c3057600080fd5b820183602082011115610c4257600080fd5b803590602001918460018302840111600160201b83111715610c6357600080fd5b91908080601f016020809104026020016040519081016040528093929190818152602001838380828437600092019190915250929550611df9945050505050565b348015610cb057600080fd5b506102f560048036036020811015610cc757600080fd5b5035611e57565b6103e960048036036040811015610ce457600080fd5b81359190810190604081016020820135600160201b811115610d0557600080fd5b820183602082011115610d1757600080fd5b803590602001918460208302840111600160201b83111715610d3857600080fd5b50909250905061209e565b348015610d4f57600080fd5b506102cc60048036036020811015610d6657600080fd5b50356001600160a01b03166122eb565b348015610d8257600080fd5b506102cc60048036036040811015610d9957600080fd5b506001600160a01b0381358116916020013516612300565b348015610dbd57600080fd5b506103e960048036036020811015610dd457600080fd5b810190602081018135600160201b811115610dee57600080fd5b820183602082011115610e0057600080fd5b803590602001918460018302840111600160201b83111715610e2157600080fd5b91908080601f01602080910402602001604051908101604052809392919081815260200183838082843760009201919091525092955061232e945050505050565b6001600160e01b0319811660009081526020819052604090205460ff165b919050565b60098054604080516020601f6002600019610100600188161502019095169490940493840181900481028201810190925282815260609390929091830182828015610f115780601f10610ee657610100808354040283529160200191610f11565b820191906000526020600020905b815481529060010190602001808311610ef457829003601f168201915b505050505090505b90565b6000610f2782612387565b610f625760405162461bcd60e51b815260040180806020018281038252602c815260200180613a4f602c913960400191505060405180910390fd5b506000908152600260205260409020546001600160a01b031690565b601e5460ff1615610fc9576040805162461bcd60e51b815260206004820152601060248201526f14185d5cd8589b194e881c185d5cd95960821b604482015290519081900360640190fd5b610fd382826123a4565b5050565b601954610100900460ff1681565b60075490565b610ff361370b565b610ffb61370b565b50506040805160e081018252600f5481526010546020820152601154918101919091526012546060820152601454608082015260155460a082015260165460c082015290565b61105261104c6124cc565b826124d0565b61108d5760405162461bcd60e51b8152600401808060200182810382526031815260200180613b136031913960400191505060405180910390fd5b611098838383612574565b505050565b601954610100900460ff166110f9576040805162461bcd60e51b815260206004820152601f60248201527f546865207075626c69632073616c65206973206e6f7420656e61626c65642100604482015290519081900360640190fd5b600f54336000908152600e6020526040902054439161111e919063ffffffff6125ca16565b10611165576040805162461bcd60e51b8152602060048201526012602482015271109bdd081a5cc81b9bdd08185b1b1bddd95960721b604482015290519081900360640190fd5b6014544310156111ae576040805162461bcd60e51b815260206004820152600f60248201526e139bdd081e595d081cdd185c9d1959608a1b604482015290519081900360640190fd5b6000811180156111c057506011548111155b6111fb5760405162461bcd60e51b81526004018080602001828103825260218152602001806138e16021913960400191505060405180910390fd5b60165461120e908263ffffffff61262416565b3414611253576040805162461bcd60e51b815260206004820152600f60248201526e4e6f7420656e6f756768204b6c617960881b604482015290519081900360640190fd5b60155460010161126e826010546125ca90919063ffffffff16565b11156112b5576040805162461bcd60e51b8152602060048201526011602482015270115e18d95959081b585e08185b5bdd5b9d607a1b604482015290519081900360640190fd5b601254816112c23361182b565b011115611316576040805162461bcd60e51b815260206004820152601c60248201527f457863656564206d617820616d6f756e742070657220706572736f6e00000000604482015290519081900360640190fd5b60005b8181101561134c5761132d3360105461267d565b60105461134190600163ffffffff6125ca16565b601055600101611319565b5050336000908152600e60205260409020439055565b601a5481565b60006113738361182b565b82106113b05760405162461bcd60e51b815260040180806020018281038252602b815260200180613854602b913960400191505060405180910390fd5b6001600160a01b03831660009081526005602052604090208054839081106113d457fe5b906000526020600020015490505b92915050565b6113f86113f36124cc565b611d8d565b6114335760405162461bcd60e51b81526004018080602001828103825260308152602001806139dd6030913960400191505060405180910390fd5b6040513390303180156108fc02916000818181858888f19350505050158015611460573d6000803e3d6000fd5b50565b61147361146e6124cc565b611611565b6114ae5760405162461bcd60e51b81526004018080602001828103825260308152602001806138b16030913960400191505060405180910390fd5b601e5460ff166114fc576040805162461bcd60e51b815260206004820152601460248201527314185d5cd8589b194e881b9bdd081c185d5cd95960621b604482015290519081900360640190fd5b601e805460ff191690557f5db9ee0a495bf2e6ff9c91a7834c1ba4fdd244a5e8aa4e537bd38aeae4b073aa61152f6124cc565b604080516001600160a01b039092168252519081900360200190a1565b60006115596113f36124cc565b6115945760405162461bcd60e51b81526004018080602001828103825260308152602001806139dd6030913960400191505060405180910390fd5b61159e838361267d565b50600192915050565b61109883838360405180602001604052806000815250611df9565b6115cd61104c6124cc565b6116085760405162461bcd60e51b8152600401808060200182810382526030815260200180613bb76030913960400191505060405180910390fd5b6114608161269a565b60006113e2601d8363ffffffff6126ac16565b600061162e610fe5565b821061166b5760405162461bcd60e51b815260040180806020018281038252602c815260200180613b66602c913960400191505060405180910390fd5b6007828154811061167857fe5b90600052602060002001549050919050565b60006116976113f36124cc565b6116d25760405162461bcd60e51b81526004018080602001828103825260308152602001806139dd6030913960400191505060405180910390fd5b6116dc848461267d565b6116e68383612713565b5060019392505050565b60195460ff1681565b6117046113f36124cc565b61173f5760405162461bcd60e51b81526004018080602001828103825260308152602001806139dd6030913960400191505060405180910390fd5b8051610fd3906017906020840190613729565b601e5460ff1690565b6000818152600160205260408120546001600160a01b0316806113e25760405162461bcd60e51b81526004018080602001828103825260298152602001806139b46029913960400191505060405180910390fd5b600b8054604080516020601f6002600019610100600188161502019095169490940493840181900481028201810190925282815260609390929091830182828015610f115780601f10610ee657610100808354040283529160200191610f11565b601c5460ff1681565b6118296118246124cc565b612776565b565b60006001600160a01b0382166118725760405162461bcd60e51b815260040180806020018281038252602a81526020018061398a602a913960400191505060405180910390fd5b6001600160a01b03821660009081526003602052604090206113e2906127be565b61189e6113f36124cc565b6118d95760405162461bcd60e51b81526004018080602001828103825260308152602001806139dd6030913960400191505060405180910390fd5b6000811161191d576040805162461bcd60e51b815260206004820152600c60248201526b1e995c9bc81c995c5d595cdd60a21b604482015290519081900360640190fd5b60005b81811015611098576119348360105461267d565b60105461194890600163ffffffff6125ca16565b601055600101611920565b61195e6113f36124cc565b6119995760405162461bcd60e51b81526004018080602001828103825260308152602001806139dd6030913960400191505060405180910390fd5b601a55565b6119a96113f36124cc565b6119e45760405162461bcd60e51b81526004018080602001828103825260308152602001806139dd6030913960400191505060405180910390fd5b601980549115156101000261ff0019909216919091179055565b611a0961146e6124cc565b611a445760405162461bcd60e51b81526004018080602001828103825260308152602001806138b16030913960400191505060405180910390fd5b611460816127c2565b611a5861146e6124cc565b611a935760405162461bcd60e51b81526004018080602001828103825260308152602001806138b16030913960400191505060405180910390fd5b601e5460ff1615611ade576040805162461bcd60e51b815260206004820152601060248201526f14185d5cd8589b194e881c185d5cd95960821b604482015290519081900360640190fd5b601e805460ff191660011790557f62e78cea01bee320cd4e420270b5ea74000d11b0c9f74754ebdbfc544b05a25861152f6124cc565b6000611b216113f36124cc565b611b5c5760405162461bcd60e51b81526004018080602001828103825260308152602001806139dd6030913960400191505060405180910390fd5b6116e684848461280a565b611b726113f36124cc565b611bad5760405162461bcd60e51b81526004018080602001828103825260308152602001806139dd6030913960400191505060405180910390fd5b6019805460ff1916911515919091179055565b600a8054604080516020601f6002600019610100600188161502019095169490940493840181900481028201810190925282815260609390929091830182828015610f115780601f10610ee657610100808354040283529160200191610f11565b611c2c6113f36124cc565b611c675760405162461bcd60e51b81526004018080602001828103825260308152602001806139dd6030913960400191505060405180910390fd5b6114608161285c565b611829611c7b6124cc565b6128a4565b6000611c8d6113f36124cc565b611cc85760405162461bcd60e51b81526004018080602001828103825260308152602001806139dd6030913960400191505060405180910390fd5b61159e83836128ec565b601e5460ff1615611d1d576040805162461bcd60e51b815260206004820152601060248201526f14185d5cd8589b194e881c185d5cd95960821b604482015290519081900360640190fd5b610fd38282612906565b611d326113f36124cc565b611d6d5760405162461bcd60e51b81526004018080602001828103825260308152602001806139dd6030913960400191505060405180910390fd5b600f96909655601194909455601292909255601455601055601555601655565b60006113e2600d8363ffffffff6126ac16565b611dab6113f36124cc565b611de65760405162461bcd60e51b81526004018080602001828103825260308152602001806139dd6030913960400191505060405180910390fd5b601c805460ff1916911515919091179055565b611e0a611e046124cc565b836124d0565b611e455760405162461bcd60e51b8152600401808060200182810382526031815260200180613b136031913960400191505060405180910390fd5b611e5184848484612a0b565b50505050565b6060611e6282612387565b611e9d5760405162461bcd60e51b815260040180806020018281038252602e815260200180613826602e913960400191505060405180910390fd5b60195460ff16611fa3576060611eb1612a5d565b90506000815111611ed15760405180602001604052806000815250611f9b565b80611edb84612abe565b6040516020018083805190602001908083835b60208310611f0d5780518252601f199092019160209182019101611eee565b51815160209384036101000a600019018019909216911617905285519190930192850191508083835b60208310611f555780518252601f199092019160209182019101611f36565b6001836020036101000a0380198251168184511680821785525050505050509050018064173539b7b760d91b815250600501925050506040516020818303038152906040525b915050610e80565b6060611fad612b7f565b90506000815111611fcd5760405180602001604052806000815250612097565b80611fd784612abe565b6040516020018083805190602001908083835b602083106120095780518252601f199092019160209182019101611fea565b51815160209384036101000a600019018019909216911617905285519190930192850191508083835b602083106120515780518252601f199092019160209182019101612032565b6001836020036101000a0380198251168184511680821785525050505050509050018064173539b7b760d91b815250600501925050506040516020818303038152906040525b9392505050565b601c5460ff166120df5760405162461bcd60e51b8152600401808060200182810382526022815260200180613b446022913960400191505060405180910390fd5b6016546120f2908463ffffffff61262416565b3414612137576040805162461bcd60e51b815260206004820152600f60248201526e4e6f7420656e6f756768204b6c617960881b604482015290519081900360640190fd5b336000908152601b602052604090205460ff161561219c576040805162461bcd60e51b815260206004820152601860248201527f4164647265737320616c726561647920636c61696d6564210000000000000000604482015290519081900360640190fd5b6000831180156121ae57506011548311155b6121e95760405162461bcd60e51b81526004018080602001828103825260218152602001806138e16021913960400191505060405180910390fd5b604080513360601b602080830191909152825180830360140181526034830180855281519183019190912060549286028085018401909552858252936122529391928792879283929091019084908082843760009201919091525050601a549150849050612be0565b612294576040805162461bcd60e51b815260206004820152600e60248201526d496e76616c69642070726f6f662160901b604482015290519081900360640190fd5b60005b848110156122ca576122ab3360105461267d565b6010546122bf90600163ffffffff6125ca16565b601055600101612297565b5050336000908152601b60205260409020805460ff19166001179055505050565b601b6020526000908152604090205460ff1681565b6001600160a01b03918216600090815260046020908152604080832093909416825291909152205460ff1690565b6123396113f36124cc565b6123745760405162461bcd60e51b81526004018080602001828103825260308152602001806139dd6030913960400191505060405180910390fd5b8051610fd3906018906020840190613729565b6000908152600160205260409020546001600160a01b0316151590565b60006123af8261175b565b9050806001600160a01b0316836001600160a01b031614156124025760405162461bcd60e51b8152600401808060200182810382526021815260200180613af26021913960400191505060405180910390fd5b806001600160a01b03166124146124cc565b6001600160a01b031614806124355750612435816124306124cc565b612300565b6124705760405162461bcd60e51b81526004018080602001828103825260388152602001806139526038913960400191505060405180910390fd5b60008281526002602052604080822080546001600160a01b0319166001600160a01b0387811691821790925591518593918516917f8c5be1e5ebec7d5bd14f71427d1e84f3dd0314c0f7b2291e5b200ac8c7c3b92591a4505050565b3390565b60006124db82612387565b6125165760405162461bcd60e51b815260040180806020018281038252602c815260200180613926602c913960400191505060405180910390fd5b60006125218361175b565b9050806001600160a01b0316846001600160a01b0316148061255c5750836001600160a01b031661255184610f1c565b6001600160a01b0316145b8061256c575061256c8185612300565b949350505050565b601e5460ff16156125bf576040805162461bcd60e51b815260206004820152601060248201526f14185d5cd8589b194e881c185d5cd95960821b604482015290519081900360640190fd5b611098838383612c89565b600082820183811015612097576040805162461bcd60e51b815260206004820152601b60248201527f536166654d6174683a206164646974696f6e206f766572666c6f770000000000604482015290519081900360640190fd5b600082612633575060006113e2565b8282028284828161264057fe5b04146120975760405162461bcd60e51b8152600401808060200182810382526021815260200180613a2e6021913960400191505060405180910390fd5b6126878282612ca8565b6126918282612dd9565b610fd381612e17565b6114606126a68261175b565b82612e5b565b60006001600160a01b0382166126f35760405162461bcd60e51b8152600401808060200182810382526022815260200180613aa76022913960400191505060405180910390fd5b506001600160a01b03166000908152602091909152604090205460ff1690565b61271c82612387565b6127575760405162461bcd60e51b815260040180806020018281038252602c815260200180613a7b602c913960400191505060405180910390fd5b6000828152600c60209081526040909120825161109892840190613729565b612787601d8263ffffffff612ea316565b6040516001600160a01b038216907fcd265ebaf09df2871cc7bd4133404a235ba12eff2041bb89d9c714a2621c7c7e90600090a250565b5490565b6127d3601d8263ffffffff612f0a16565b6040516001600160a01b038216907f6719d08c1888103bea251a4ed56406bd0c3e69723c8a1686e017e7bbe159b6f890600090a250565b612814838361267d565b6128216000848484612f8b565b6110985760405162461bcd60e51b815260040180806020018281038252603281526020018061387f6032913960400191505060405180910390fd5b61286d600d8263ffffffff612f0a16565b6040516001600160a01b038216907f6ae172837ea30b801fbfcdd4108aa1d5bf8ff775444fd70256b44e6bf3dfc3f690600090a250565b6128b5600d8263ffffffff612ea316565b6040516001600160a01b038216907fe94479a9f7e1952cc78f2d6baab678adc1b772d936c6583def489e524cb6669290600090a250565b610fd382826040518060200160405280600081525061280a565b61290e6124cc565b6001600160a01b0316826001600160a01b03161415612974576040805162461bcd60e51b815260206004820152601960248201527f4552433732313a20617070726f766520746f2063616c6c657200000000000000604482015290519081900360640190fd5b80600460006129816124cc565b6001600160a01b03908116825260208083019390935260409182016000908120918716808252919093529120805460ff1916921515929092179091556129c56124cc565b60408051841515815290516001600160a01b0392909216917f17307eab39ab6107e8899845ad3d59bd9653f200f220920489ca2b5937696c319181900360200190a35050565b612a16848484612574565b612a2284848484612f8b565b611e515760405162461bcd60e51b815260040180806020018281038252603281526020018061387f6032913960400191505060405180910390fd5b60188054604080516020601f6002600019610100600188161502019095169490940493840181900481028201810190925282815260609390929091830182828015610f115780601f10610ee657610100808354040283529160200191610f11565b606081612ae357506040805180820190915260018152600360fc1b6020820152610e80565b8160005b8115612afb57600101600a82049150612ae7565b6060816040519080825280601f01601f191660200182016040528015612b28576020820181803883390190505b50905060001982015b8515612b7657600a860660300160f81b82828060019003935081518110612b5457fe5b60200101906001600160f81b031916908160001a905350600a86049550612b31565b50949350505050565b60178054604080516020601f6002600019610100600188161502019095169490940493840181900481028201810190925282815260609390929091830182828015610f115780601f10610ee657610100808354040283529160200191610f11565b600081815b8551811015612c7e576000868281518110612bfc57fe5b60200260200101519050808311612c435782816040516020018083815260200182815260200192505050604051602081830303815290604052805190602001209250612c75565b808360405160200180838152602001828152602001925050506040516020818303038152906040528051906020012092505b50600101612be5565b509092149392505050565b612c948383836131c6565b612c9e838261330a565b6110988282612dd9565b6001600160a01b038216612d03576040805162461bcd60e51b815260206004820181905260248201527f4552433732313a206d696e7420746f20746865207a65726f2061646472657373604482015290519081900360640190fd5b612d0c81612387565b15612d5e576040805162461bcd60e51b815260206004820152601c60248201527f4552433732313a20746f6b656e20616c7265616479206d696e74656400000000604482015290519081900360640190fd5b600081815260016020908152604080832080546001600160a01b0319166001600160a01b038716908117909155835260039091529020612d9d906133ff565b60405181906001600160a01b038416906000907fddf252ad1be2c89b69c2b068fc378daa952ba7f163c4a11628f55a4df523b3ef908290a45050565b6001600160a01b0390911660009081526005602081815260408084208054868652600684529185208290559282526001810183559183529091200155565b600780546000838152600860205260408120829055600182018355919091527fa66cc928b5edb82af9bd49922954155ab7b0942694bea4ce44661d9a8736c6880155565b612e658282613408565b6000818152600c60205260409020546002600019610100600184161502019091160415610fd3576000818152600c60205260408120610fd3916137a7565b612ead82826126ac565b612ee85760405162461bcd60e51b8152600401808060200182810382526021815260200180613a0d6021913960400191505060405180910390fd5b6001600160a01b0316600090815260209190915260409020805460ff19169055565b612f1482826126ac565b15612f66576040805162461bcd60e51b815260206004820152601f60248201527f526f6c65733a206163636f756e7420616c72656164792068617320726f6c6500604482015290519081900360640190fd5b6001600160a01b0316600090815260209190915260409020805460ff19166001179055565b6000612f9f846001600160a01b0316613434565b612fab5750600161256c565b600060606001600160a01b038616630a85bd0160e11b612fc96124cc565b89888860405160240180856001600160a01b03166001600160a01b03168152602001846001600160a01b03166001600160a01b0316815260200183815260200180602001828103825283818151815260200191508051906020019080838360005b8381101561304257818101518382015260200161302a565b50505050905090810190601f16801561306f5780820380516001836020036101000a031916815260200191505b5060408051601f198184030181529181526020820180516001600160e01b03166001600160e01b0319909a16999099178952518151919890975087965094509250829150849050835b602083106130d75780518252601f1990920191602091820191016130b8565b6001836020036101000a0380198251168184511680821785525050505050509050019150506000604051808303816000865af19150503d8060008114613139576040519150601f19603f3d011682016040523d82523d6000602084013e61313e565b606091505b50915091508161318f578051156131585780518082602001fd5b60405162461bcd60e51b815260040180806020018281038252603281526020018061387f6032913960400191505060405180910390fd5b60008180602001905160208110156131a657600080fd5b50516001600160e01b031916630a85bd0160e11b14935061256c92505050565b826001600160a01b03166131d98261175b565b6001600160a01b03161461321e5760405162461bcd60e51b8152600401808060200182810382526029815260200180613ac96029913960400191505060405180910390fd5b6001600160a01b0382166132635760405162461bcd60e51b81526004018080602001828103825260248152602001806139026024913960400191505060405180910390fd5b61326c8161346d565b6001600160a01b038316600090815260036020526040902061328d906134a8565b6001600160a01b03821660009081526003602052604090206132ae906133ff565b60008181526001602052604080822080546001600160a01b0319166001600160a01b0386811691821790925591518493918716917fddf252ad1be2c89b69c2b068fc378daa952ba7f163c4a11628f55a4df523b3ef91a4505050565b6001600160a01b03821660009081526005602052604081205461333490600163ffffffff6134bf16565b6000838152600660205260409020549091508082146133cf576001600160a01b038416600090815260056020526040812080548490811061337157fe5b906000526020600020015490508060056000876001600160a01b03166001600160a01b0316815260200190815260200160002083815481106133af57fe5b600091825260208083209091019290925591825260069052604090208190555b6001600160a01b03841660009081526005602052604090208054906133f89060001983016137eb565b5050505050565b80546001019055565b6134128282613501565b61341c828261330a565b600081815260066020526040812055610fd3816135d8565b6000813f7fc5d2460186f7233c927e7db2dcc703c0e500b653ca82273b7bfad8045d85a47081811480159061256c575050151592915050565b6000818152600260205260409020546001600160a01b03161561146057600090815260026020526040902080546001600160a01b0319169055565b80546134bb90600163ffffffff6134bf16565b9055565b600061209783836040518060400160405280601e81526020017f536166654d6174683a207375627472616374696f6e206f766572666c6f770000815250613674565b816001600160a01b03166135148261175b565b6001600160a01b0316146135595760405162461bcd60e51b8152600401808060200182810382526025815260200180613b926025913960400191505060405180910390fd5b6135628161346d565b6001600160a01b0382166000908152600360205260409020613583906134a8565b60008181526001602052604080822080546001600160a01b0319169055518291906001600160a01b038516907fddf252ad1be2c89b69c2b068fc378daa952ba7f163c4a11628f55a4df523b3ef908390a45050565b6007546000906135ef90600163ffffffff6134bf16565b6000838152600860205260408120546007805493945090928490811061361157fe5b90600052602060002001549050806007838154811061362c57fe5b6000918252602080832090910192909255828152600890915260409020829055600780549061365f9060001983016137eb565b50505060009182525060086020526040812055565b600081848411156137035760405162461bcd60e51b81526004018080602001828103825283818151815260200191508051906020019080838360005b838110156136c85781810151838201526020016136b0565b50505050905090810190601f1680156136f55780820380516001836020036101000a031916815260200191505b509250505060405180910390fd5b505050900390565b6040518060e001604052806007906020820280388339509192915050565b828054600181600116156101000203166002900490600052602060002090601f016020900481019282601f1061376a57805160ff1916838001178555613797565b82800160010185558215613797579182015b8281111561379757825182559160200191906001019061377c565b506137a392915061380b565b5090565b50805460018160011615610100020316600290046000825580601f106137cd5750611460565b601f016020900490600052602060002090810190611460919061380b565b815481835581811115611098576000838152602090206110989181019083015b610f1991905b808211156137a3576000815560010161381156fe4b495031374d657461646174613a2055524920717565727920666f72206e6f6e6578697374656e7420746f6b656e455243373231456e756d657261626c653a206f776e657220696e646578206f7574206f6620626f756e64734552433732313a207472616e7366657220746f206e6f6e20455243373231526563656976657220696d706c656d656e746572506175736572526f6c653a2063616c6c657220646f6573206e6f742068617665207468652050617573657220726f6c65546f6f206d616e79207265717565737473206f72207a65726f20726571756573744552433732313a207472616e7366657220746f20746865207a65726f20616464726573734552433732313a206f70657261746f7220717565727920666f72206e6f6e6578697374656e7420746f6b656e4552433732313a20617070726f76652063616c6c6572206973206e6f74206f776e6572206e6f7220617070726f76656420666f7220616c6c4552433732313a2062616c616e636520717565727920666f7220746865207a65726f20616464726573734552433732313a206f776e657220717565727920666f72206e6f6e6578697374656e7420746f6b656e4d696e746572526f6c653a2063616c6c657220646f6573206e6f74206861766520746865204d696e74657220726f6c65526f6c65733a206163636f756e7420646f6573206e6f74206861766520726f6c65536166654d6174683a206d756c7469706c69636174696f6e206f766572666c6f774552433732313a20617070726f76656420717565727920666f72206e6f6e6578697374656e7420746f6b656e4552433732314d657461646174613a2055524920736574206f66206e6f6e6578697374656e7420746f6b656e526f6c65733a206163636f756e7420697320746865207a65726f20616464726573734552433732313a207472616e73666572206f6620746f6b656e2074686174206973206e6f74206f776e4552433732313a20617070726f76616c20746f2063757272656e74206f776e65724552433732313a207472616e736665722063616c6c6572206973206e6f74206f776e6572206e6f7220617070726f7665645468652077686974656c6973742073616c65206973206e6f7420656e61626c656421455243373231456e756d657261626c653a20676c6f62616c20696e646578206f7574206f6620626f756e64734552433732313a206275726e206f6620746f6b656e2074686174206973206e6f74206f776e4552433732314275726e61626c653a2063616c6c6572206973206e6f74206f776e6572206e6f7220617070726f766564a265627a7a723058208f90a77e6d86e79c28c5013e89aa4f408cc3ba7731f0251dc71afef9e007dcd564736f6c634300050a0032526f6c65733a206163636f756e7420697320746865207a65726f2061646472657373",
  "source": "pragma solidity ^0.5.0;\n\nimport \"./token/ERC721/ERC721Full.sol\";\nimport \"./token/ERC721/ERC721MetadataMintable.sol\";\nimport \"./token/ERC721/ERC721Mintable.sol\";\nimport \"./token/ERC721/ERC721Burnable.sol\";\nimport \"./token/ERC721/ERC721Pausable.sol\";\n\ncontract TestingToken is ERC721Full, ERC721Mintable, ERC721MetadataMintable, ERC721Burnable, ERC721Pausable {\n    constructor (string memory name, string memory symbol) public ERC721Full(name, symbol) {\n    }\n}",
  "sourcePath": "C:\\Users\\MUS1\\WebstormProjects\\nft_klaytn_to_eth\\contracts\\TestingToken.sol",
  "compiler": {
    "name": "solc",
    "version": "0.5.10+commit.5a6ea5b1.Emscripten.clang"
  },
  "schemaVersion": "3.4.7",
  "updatedAt": "2022-06-13T07:58:37.161Z",
  "networkType": "ethereum",
  "devdoc": {
    "methods": {
      "balanceOf(address)": {
        "details": "Gets the balance of the specified address.",
        "params": {
          "owner": "address to query the balance of"
        },
        "return": "uint256 representing the amount owned by the passed address"
      },
      "baseURI()": {
        "details": "Returns the base URI set via {_setBaseURI}. This will be automatically added as a preffix in {tokenURI} to each token's URI, when they are non-empty.    * _Available since v2.5.0._"
      },
      "burn(uint256)": {
        "details": "Burns a specific ERC721 token.",
        "params": {
          "tokenId": "uint256 id of the ERC721 token to be burned."
        }
      },
      "getApproved(uint256)": {
        "details": "Gets the approved address for a token ID, or zero if no address set Reverts if the token ID does not exist.",
        "params": {
          "tokenId": "uint256 ID of the token to query the approval of"
        },
        "return": "address currently approved for the given token ID"
      },
      "isApprovedForAll(address,address)": {
        "details": "Tells whether an operator is approved by a given owner.",
        "params": {
          "operator": "operator address which you want to query the approval of",
          "owner": "owner address which you want to query the approval of"
        },
        "return": "bool whether the given operator is approved by the given owner"
      },
      "mint(address,uint256)": {
        "details": "Function to mint tokens.",
        "params": {
          "to": "The address that will receive the minted token.",
          "tokenId": "The token id to mint."
        },
        "return": "A boolean that indicates if the operation was successful."
      },
      "mintWithTokenURI(address,uint256,string)": {
        "details": "Function to mint tokens.",
        "params": {
          "to": "The address that will receive the minted tokens.",
          "tokenId": "The token id to mint.",
          "tokenURI": "The token URI of the minted token."
        },
        "return": "A boolean that indicates if the operation was successful."
      },
      "name()": {
        "details": "Gets the token name.",
        "return": "string representing the token name"
      },
      "ownerOf(uint256)": {
        "details": "Gets the owner of the specified token ID.",
        "params": {
          "tokenId": "uint256 ID of the token to query the owner of"
        },
        "return": "address currently marked as the owner of the given token ID"
      },
      "pause()": {
        "details": "Called by a pauser to pause, triggers stopped state."
      },
      "paused()": {
        "details": "Returns true if the contract is paused, and false otherwise."
      },
      "safeMint(address,uint256)": {
        "details": "Function to safely mint tokens.",
        "params": {
          "to": "The address that will receive the minted token.",
          "tokenId": "The token id to mint."
        },
        "return": "A boolean that indicates if the operation was successful."
      },
      "safeMint(address,uint256,bytes)": {
        "details": "Function to safely mint tokens.",
        "params": {
          "_data": "bytes data to send along with a safe transfer check.",
          "to": "The address that will receive the minted token.",
          "tokenId": "The token id to mint."
        },
        "return": "A boolean that indicates if the operation was successful."
      },
      "safeTransferFrom(address,address,uint256)": {
        "details": "Safely transfers the ownership of a given token ID to another address If the target address is a contract, it must implement {IERC721Receiver-onERC721Received}, which is called upon a safe transfer, and return the magic value `bytes4(keccak256(\"onERC721Received(address,address,uint256,bytes)\"))`; otherwise, the transfer is reverted. Requires the msg.sender to be the owner, approved, or operator",
        "params": {
          "from": "current owner of the token",
          "to": "address to receive the ownership of the given token ID",
          "tokenId": "uint256 ID of the token to be transferred"
        }
      },
      "safeTransferFrom(address,address,uint256,bytes)": {
        "details": "Safely transfers the ownership of a given token ID to another address If the target address is a contract, it must implement {IERC721Receiver-onERC721Received}, which is called upon a safe transfer, and return the magic value `bytes4(keccak256(\"onERC721Received(address,address,uint256,bytes)\"))`; otherwise, the transfer is reverted. Requires the _msgSender() to be the owner, approved, or operator",
        "params": {
          "_data": "bytes data to send along with a safe transfer check",
          "from": "current owner of the token",
          "to": "address to receive the ownership of the given token ID",
          "tokenId": "uint256 ID of the token to be transferred"
        }
      },
      "supportsInterface(bytes4)": {
        "details": "See {IERC165-supportsInterface}.     * Time complexity O(1), guaranteed to always use less than 30 000 gas."
      },
      "symbol()": {
        "details": "Gets the token symbol.",
        "return": "string representing the token symbol"
      },
      "tokenByIndex(uint256)": {
        "details": "Gets the token ID at a given index of all the tokens in this contract Reverts if the index is greater or equal to the total number of tokens.",
        "params": {
          "index": "uint256 representing the index to be accessed of the tokens list"
        },
        "return": "uint256 token ID at the given index of the tokens list"
      },
      "tokenOfOwnerByIndex(address,uint256)": {
        "details": "Gets the token ID at a given index of the tokens list of the requested owner.",
        "params": {
          "index": "uint256 representing the index to be accessed of the requested tokens list",
          "owner": "address owning the tokens list to be accessed"
        },
        "return": "uint256 token ID at the given index of the tokens list owned by the requested address"
      },
      "totalSupply()": {
        "details": "Gets the total amount of tokens stored by the contract.",
        "return": "uint256 representing the total amount of tokens"
      },
      "transferFrom(address,address,uint256)": {
        "details": "Transfers the ownership of a given token ID to another address. Usage of this method is discouraged, use {safeTransferFrom} whenever possible. Requires the msg.sender to be the owner, approved, or operator.",
        "params": {
          "from": "current owner of the token",
          "to": "address to receive the ownership of the given token ID",
          "tokenId": "uint256 ID of the token to be transferred"
        }
      },
      "unpause()": {
        "details": "Called by a pauser to unpause, returns to normal state."
      }
    }
  },
  "userdoc": {
    "methods": {}
  }
}